:02000000EF29E6
:020006000800F0
:10000800FF00030E8301AE000A08AF008A018B13BC
:100018000B1D11280B118809A90A8B172F088A00B4
:0A0028002E0E8300FF0E7F0E09006C
:10003200033083120313FD00FD0B1D280000000096
:020042000800B4
:10004400023083120313FC00C830FD00FD0B282886
:06005400FC0B2828080047
:10005A0083120313F801F9011030FC00710DF80D39
:10006A00F90D7408F8027508031C750FF9020318D4
:10007A0045287408F80775080318750FF90703105F
:0A008A00F00DF10DFC0B3328080007
:1000940083120313CD1B50288711512887154D1B3C
:1000A4005528071156280715CD1A5A2887105B289A
:1000B40087144D1A5F280710602807142B1864282A
:1000C400071665280712871603208712CD196C2896
:1000D40087116D2887154D19712807117228071586
:1000E400CD1876288710772887144D187B28071099
:1000F4007C2807142B1880280716812807128716D6
:10010400032087122B1C8828222089281920080004
:0E011400831203132D088A002C0882000800B5
:1001220083120313CB0105304B0203189F284B089F
:100132004A07840020308000CB0A94284B084A07E3
:1001420084008001CB034B084A07CC000A30F4003C
:10015200F5014808F0004908F1002D207808F00068
:100162007908F1003030F0074C08840070088000F4
:100172000A30F400F5014808F0004908F1002D208A
:100182007008C8007108C90000307106031DCB2831
:1001920000307006031DCE28D028CB03A428080007
:1001A200831203132B104808CD004A202B14080099
:1001B20083120313C00140083F078400000803199B
:1001C200EA2840083F0784000008C800D120C00A7E
:0401D200DC2808001D
:1001D600FD28803083120313BF001029C030BF00F2
:1001E60010299430BF001029D430BF001029803068
:1001F600BF001029831203133F08013A0319EC28A4
:100206003F08023A0319F1283F08033A0319F42874
:100216003F08043A0319F728FA284003F0003F087C
:10022600F0077008BF007008CD004A202B10C201ED
:10023600420841078400000803192929420841079A
:1002460084000008C800D120C20A1B292B1408000C
:1002560083120313C401C5013F08C6004008C70046
:1002660080304006F00080307002031D3C290030CB
:100276003F0203184A290130C4000030C5003F0878
:10028600003CC6004008031C013EC701C7024608E1
:10029600C8004708C9004108CA0091200630C200BC
:1002A6000030C3004308003C031D5B294208003CA4
:1002B6000318762942084107F20001304202F00095
:1002C6000030031C013E4302F10070084107840020
:1002D6000008F00072088400700880000130C20235
:1002E600031CC303552941088400203080004408BC
:1002F600450403199429C201C30142084107840039
:100306000008203A031D8B29C20A0319C30A802953
:100316000130C202031CC3034208410784002D308A
:04032600800008004B
:10032A008316031387120712071087100711871104
:10033A0083128712071287110711871007102220CC
:10034A0022202220871407148716032087122220CE
:10035A00871603208712222087160320871222205D
:10036A000710871603208712222087160320871278
:10037A0087108715871603208712222087110714F2
:10038A008716032087120710871603208712222058
:10039A008716032087120714871603208712222044
:1003AA000710871603208712871507158714071465
:0C03BA0087160320871222202B14080055
:1003C6008A208A110A128000840AAC0A0319AD0A2F
:0803D600F003031DE3290800F8
:1003DE0083120313A001A101A201A301A401A5018F
:1003EE00A601A701A801A901AA0183168601FF3063
:1003FE008500831285018316031789010313880173
:10040E0083128801273083168100A0308B0083125F
:10041E0081018316811295210130CD004A200C30C6
:10042E00CD004A200230BF000530C0004630B0007B
:10043E005230B1004530B2004330B3005530B400F5
:10044E004530B5004E30B6004330B7004930B800E5
:10045E004130B9003A30BA00BB013030C100EB2058
:10046E00051E432A2A08003A031D432AA10A03192E
:10047E00A20A86140130AA00051A472AAA0186107C
:10048E002908043A031D502AA9010130A0000614C0
:10049E00512A06102008013A031D702A2108BF00B8
:1004AE002208C0002330C1002B210330BF000530CD
:1004BE00C0002330C100EB204830BC005A30BD00D4
:1004CE00BE013C30BF00D920FF30F000FF30F100FC
:0604DE00712A372A712A81
:04400E00F22B00078A
:00000001FF
