:02000000FA29DB
:10000800FF00030E8301AE000A08AF008A018B13BC
:100018000B1D10280B11A90A8B178B130C1C1B28FE
:100028000C10FF308F008E01A70A0319A80A8B173E
:0E0038002F088A002E0E8300FF0E7F0E090097
:0400460000000800AE
:10004A00103083120313FD00FD0B2928000008005D
:10005A00083083120313FC002330FD00FD0B332804
:06006A00FC0B3328080026
:1000700083120313F801F9011030FC00710DF80D23
:10008000F90D7408F8027508031C750FF9020318BE
:1000900050287408F80775080318750FF90703103E
:0A00A000F00DF10DFC0B3E280800E6
:1000AA0083120313CD1B5B2888115C2888154D1B0E
:1000BA006028081161280815CD1A65288810662855
:1000CA0088144D1A6A2808106B2808142B186F28F0
:1000DA00081670280812881623208812CD19772846
:1000EA008811782888154D197C2808117D2808154B
:1000FA00CD1881288810822888144D18862808105F
:10010A00872808142B188B2808168C28081288169A
:10011A00232088122B1C93282D20942825200800A0
:0E012A00831203132D088A002C08820008009F
:1001380083120313CB0105304B020318AA284B087E
:100148004A07840020308000CB0A9F284B084A07C2
:1001580084008001CB034B084A07CC000A30F40026
:10016800F5014808F0004908F10038207808F00047
:100178007908F1003030F0074C08840070088000DE
:100188000A30F400F5014808F0004908F100382069
:100198007008C8007108C90000307106031DD62810
:1001A80000307006031DD928DB28CB03AF280800D0
:1001B800831203132B104808CD0055202B14080078
:1001C80083120313C00140083F0784000008031985
:1001D800F52840083F0784000008C800DC20C00A52
:0401E800E7280800FC
:1001EC000829803083120313BF001B29C030BF00C5
:1001FC001B299430BF001B29D430BF001B29803031
:10020C00BF001B29831203133F08013A0319F72877
:10021C003F08023A0319FC283F08033A0319FF2848
:10022C003F08043A0319022905294003F0003F084E
:10023C00F0077008BF007008CD0055202B10C201CC
:10024C004208410784000008031934294208410779
:10025C0084000008C800DC20C20A26292B140800E0
:10026C0083120313C401C5013F08C6004008C70030
:10027C0080304006F00080307002031D47290030AA
:10028C003F02031855290130C4000030C5003F0857
:10029C00003CC6004008031C013EC701C7024608CB
:1002AC00C8004708C9004108CA009C200630C2009B
:1002BC000030C3004308003C031D66294208003C83
:1002CC000318812942084107F20001304202F00074
:1002DC000030031C013E4302F1007008410784000A
:1002EC000008F00072088400700880000130C2021F
:1002FC00031CC3036029410884002030800044089B
:10030C00450403199F29C201C30142084107840017
:10031C000008203A031D9629C20A0319C30A8B2927
:10032C000130C202031CC3034208410784002D3074
:04033C008000080035
:1003400083160313881208120810881008118811E8
:1003500083128812081288110811881008102D20A5
:100360002D202D20881408148816232088122D2073
:100370008816232088122D208816232088122D20ED
:1003800008108816232088122D2088162320881212
:10039000881088158816232088122D2088110814AB
:1003A00088162320881208108816232088122D20F2
:1003B00088162320881208148816232088122D20DE
:1003C0000810881623208812881508158814081428
:0C03D0008816232088122D202B14080012
:1003DC0095208A110A128000840AAC0A0319AD0A0E
:0803EC00F003031DEE290800D7
:1003F40083120313A001A101A201A301A401A50179
:10040400A601A701A801A901AA01831687018312E5
:100414008701273083168100073083129000810101
:1004240083168112E0308B0001308C00FF30831280
:100434008F008E010C10A0210130CD0055200C300E
:10044400CD0055200230BF000530C0004630B0005A
:100454005230B1004530B2004330B3005530B400DF
:100464004530B5004E30B6004330B7004930B800CF
:100474004130B9003A30BA00BB013030C100F62037
:100484002908103A031D492AA9010130A6002608AB
:10049400013A031D672A0E08BF00C0012030C100C5
:1004A40036210330BF000530C0002030C100F620E3
:1004B4004830BC005A30BD00BE013C30BF00E420CF
:0E04C400FF30F000FF30F100682A422A682A5B
:04400E00F22B00078A
:00000001FF
