:0200000069296C
:020006000800F0
:10000800FF00030E8301AD000A08AE008A018B13BE
:100018000B1D0F280B118B172E088A002D0E83003D
:06002800FF0E7F0E09002F
:10002E00033083120313FD00FD0B1B28000000009C
:02003E000800B8
:10004000023083120313FC00C830FD00FD0B26288C
:06005000FC0B262808004D
:1000560083120313C81B3128871132288715481BC2
:100066003628071137280715C81A3B2887103C2859
:100076008714481A40280710412807142A184528CB
:10008600071646280712871603208712C8194D2817
:1000960087114E2887154819522807115328071526
:1000A600C818572887105828871448185C2807103E
:1000B6005D2807142A186128071662280712871672
:1000C600032087122A1C692820206A281720080086
:0E00D600831203132C088A002B0882000800F6
:1000E40083120313F8010830FC00700DF80D740836
:1000F400F80203187F28F8070310F00DFC0B77288B
:020104000800F1
:10010600831203132A104708C8002B202A1408005C
:1001160083120313C401440843078400000803192B
:100126009C284408430784000008C7008320C40AAB
:040136008E28080007
:10013A00AF28803083120313C300C228C030C30023
:10014A00C2289430C300C228D430C300C2288030E9
:10015A00C300C228831203134308013A03199E28D5
:10016A004308023A0319A3284308033A0319A628A5
:10017A004308043A0319A928AC284403F0004308A9
:10018A00F0077008C3007008C8002B202A10C601A7
:10019A0046084507840000080319DB284608450776
:1001AA0084000008C7008320C60ACD282A14080044
:1001BA0083120313C501033045020318EB284508CF
:1001CA004407840020308000C50AE0284508440717
:1001DA0084008001C50345084407C6000A30F400BC
:1001EA004308F00072207808F0003030F007460823
:1001FA008400700880000A30F4004308F00072207E
:10020A007008C3007008003A031D0C290E29C503A3
:04021A00F0280800C0
:10021E008316031387120712071087100711871111
:10022E0083128712071287110711871007102020DB
:10023E0020202020871407148716032087122020E1
:10024E00871603208712202087160320871220206E
:10025E000710871603208712202087160320871287
:10026E008710871587160320871220208711071401
:10027E008716032087120710871603208712202067
:10028E008716032087120714871603208712202053
:10029E000710871603208712871507158714071472
:0C02AE0087160320871220202A14080065
:1002BA006B208A110A128000840AAB0A0319AC0A5D
:0802CA00F003031D5D2908008B
:1002D20083120313A001A101A201A301A401A5019C
:1002E200A601A701A801A9018316850103178901A7
:1002F20003138801831288013F3083168100A030E6
:100302008B0083128101831681120F210130C800F4
:100312002B200C30C8002B200230C3000430C40054
:100322004630AF005230B0004530B1004330B20029
:100332005530B3004530B4004E30B5004330B600FE
:100342004930B7004F30B8004D30B9004530BA00DF
:100352005430BB005230BC004F30BD003A30BE00BA
:10036200BF012F30C5009D202808C3002030C400E3
:10037200DD200330C3000730C4002030C5009D20BB
:100382004830C0005A30C100C2014030C3008B2047
:10039200A80A0319A90AA330FC005530FD00FD0B81
:0A03A200D029FC0BD029B529D5297C
:04400E00F22F000786
:00000001FF
