:020000005A297B
:020006000800F0
:10000800FF00030E8301AE000A08AD008A018B13BE
:100018000B1D12280B11A00A0319A10A8B172D0812
:0C0028008A002E0E8300FF0E7F0E0900E0
:10003400033083120313FD00FD0B1E280000000093
:020044000800B2
:10004600023083120313FC00C830FD00FD0B292883
:06005600FC0B2928080044
:10005C0083120313DC1B34288711352887155C1B8E
:10006C00392807113A280715DC1A3E2887103F2833
:10007C0087145C1A43280710442807142A184828A8
:10008C00071649280712871603208712DC195028F7
:10009C008711512887155C19552807115628071503
:1000AC00DC185A2887105B2887145C185F28071007
:1000BC00602807142A186428071665280712871663
:1000CC00032087122A1C6C2823206D281A20080074
:0E00DC00831203132C088A002B0882000800F0
:1000EA0083120313F8010830FC00700DF80D740830
:1000FA00F80203188228F8070310F00DFC0B7A287F
:02010A000800EB
:10010C00831203132A105B08DC002E202A1408002B
:10011C00A028803083120313D700B328C030D70037
:10012C00B3289430D700B328D430D700B32880300C
:10013C00D700B328831203135708013A03198F28E9
:10014C005708023A031994285708033A03199728B9
:10015C005708043A03199A289D285803F0005708A9
:10016C00F0077008D7007008DC002E202A10DA0186
:10017C005A085907840000080319CC285A08590753
:10018C0084000008DB008620DA0ABE282A14080046
:10019C008316031387120712071087100711871194
:1001AC00831287120712871107118710071023205B
:1001BC00232023208714071487160320871223205B
:1001CC0087160320871223208716032087122320EB
:1001DC000710871603208712232087160320871207
:1001EC008710871587160320871223208711071481
:1001FC0087160320871207108716032087122320E7
:10020C0087160320871207148716032087122320D2
:10021C0007108716032087128715071587140714F4
:0C022C0087160320871223202A140800E4
:1002380083120313D9010330590203182A295908D4
:100248005807840020308000D90A1F295908580708
:1002580084008001D90359085807DA000A30F400ED
:100268005708F00075207808F0003030F0075A0879
:100278008400700880000A30F4005708F0007520E8
:100288007008D7007008003A031D4B294D29D9037F
:040298002F29080002
:10029C006E208A110A128000840AAB0A0319AC0A78
:0802AC00F003031D4E290800B8
:1002B40083120313A001A101A201A301A401A501BA
:1002C400A601A701A801A9018316850103178901C5
:1002D40003138801831288013F3083168100A03004
:1002E4008B008312810183168112CE200130DC0041
:1002F4002E200C30DC002E200130D7000630D80030
:100304004830AF004F30B0004C30B1004130B20043
:100314002030B3005030B4004530B5005230B60040
:100324005230B7004130B800B9012F30D9008E20C7
:100334000230D7000630D8005030BA004530BB0038
:100344005230BC005230BD004930BE005330BF00B3
:100354004930C0004D30C1004130C200C3013A30C1
:10036400D9008E200330FB008A30FC005530FD009C
:10037400FD0BBA29FC0BBA29FB0BBA2900000000BB
:100384000130DC002E200130D7000130D80041308C
:10039400C4004830C5004F30C6005230C700413059
:1003A400C800C9014430D9008E200230D70005307E
:1003B400D8005030CA005530CB004530CC00443012
:1003C400CD004530CE002030CF005130D000553024
:1003D400D1004530D2002030D3005330D40049300E
:1003E400D500D6014A30D9008E2088092130FC007E
:1003F4007630FD00FD0BFC29FC0BFC2900002008D5
:0C040400D7002230D8001C21F729072A5D
:1004100048344F344C344134203450344534523411
:06042000523441340034A7
:1004260050344534523452344934533449344D34BB
:040436004134003419
:0C043A00413448344F3452344134003413
:1004460050345534453444344534203451345534CD
:0A0456004534203453344934003497
:04400E00F22F000786
:00000001FF
