:02000000F029E5
:10000800FF00030E8301AE000A08AF008A018B13BC
:100018000B1D11280B118809A90A8B172F088A00B4
:0A0028002E0E8300FF0E7F0E09006C
:0400320000000800C2
:10003600103083120313FD00FD0B1F28000008007B
:10004600083083120313FC002330FD00FD0B292822
:06005600FC0B2928080044
:10005C0083120313F801F9011030FC00710DF80D37
:10006C00F90D7408F8027508031C750FF9020318D2
:10007C0046287408F80775080318750FF90703105C
:0A008C00F00DF10DFC0B3428080004
:1000960083120313CD1B51288711522887154D1B38
:1000A6005628071157280715CD1A5B2887105C2894
:1000B60087144D1A60280710612807142B18652825
:1000C600071666280712871619208712CD196D287C
:1000D60087116E2887154D19722807117328071581
:1000E600CD1877288710782887144D187C28071094
:1000F6007D2807142B1881280716822807128716D1
:10010600192087122B1C892823208A281B200800E7
:0E011600831203132D088A002C0882000800B3
:1001240083120313CB0105304B020318A0284B089C
:100134004A07840020308000CB0A95284B084A07E0
:1001440084008001CB034B084A07CC000A30F4003A
:10015400F5014808F0004908F1002E207808F00065
:100164007908F1003030F0074C08840070088000F2
:100174000A30F400F5014808F0004908F1002E2087
:100184007008C8007108C90000307106031DCC282E
:1001940000307006031DCF28D128CB03A528080002
:1001A400831203132B104808CD004B202B14080096
:1001B40083120313C00140083F0784000008031999
:1001C400EB2840083F0784000008C800D220C00A7A
:0401D400DD2808001A
:1001D800FE28803083120313BF001129C030BF00EE
:1001E80011299430BF001129D430BF001129803063
:1001F800BF001129831203133F08013A0319ED28A0
:100208003F08023A0319F2283F08033A0319F52870
:100218003F08043A0319F828FB284003F0003F0878
:10022800F0077008BF007008CD004B202B10C201EA
:10023800420841078400000803192A294208410797
:1002480084000008C800D220C20A1C292B14080008
:1002580083120313C401C5013F08C6004008C70044
:1002680080304006F00080307002031D3D290030C8
:100278003F0203184B290130C4000030C5003F0875
:10028800003CC6004008031C013EC701C7024608DF
:10029800C8004708C9004108CA0092200630C200B9
:1002A8000030C3004308003C031D5C294208003CA1
:1002B8000318772942084107F20001304202F00092
:1002C8000030031C013E4302F1007008410784001E
:1002D8000008F00072088400700880000130C20233
:1002E800031CC303562941088400203080004408B9
:1002F800450403199529C201C30142084107840036
:100308000008203A031D8C29C20A0319C30A81294F
:100318000130C202031CC3034208410784002D3088
:040328008000080049
:10032C008316031387120712071087100711871102
:10033C0083128712071287110711871007102320C9
:10034C0023202320871407148716192087122320B3
:10035C00871619208712232087161920871223202D
:10036C000710871619208712232087161920871249
:10037C0087108715871619208712232087110714D9
:10038C008716192087120710871619208712232029
:10039C008716192087120714871619208712232015
:1003AC00071087161920871287150715871407144D
:0C03BC0087161920871223202B1408003C
:1003C8008B208A110A128000840AAC0A0319AD0A2C
:0803D800F003031DE4290800F5
:1003E00083120313A001A101A201A301A401A5018D
:1003F000A601A701A801A901AA0183168601FF3061
:100400008500831285018316031789010313880170
:1004100083128801273083168100A0308B0083125D
:1004200081018316811296210130CD004B200C30C2
:10043000CD004B200230BF000530C0004630B00078
:100440005230B1004530B2004330B3005530B400F3
:100450004530B5004E30B6004330B7004930B800E3
:100460004130B9003A30BA00BB013030C100EC2055
:100470008509051E452A2A08003A031D452A013030
:10048000AA00A10A0319A20A8614051A4D2A2A08ED
:10049000013A031D4D2AAA0186102908103A031DAE
:1004A000542AA9010130A0002008013A031D732A33
:1004B0002108BF002208C0002330C1002C210330D6
:1004C000BF000530C0002330C100EC204830BC0024
:1004D0005A30BD00BE013C30BF00DA20FF30F000D2
:0A04E000FF30F100742A382A742A54
:04400E00F22B00078A
:00000001FF
