:02000000EF29E6
:10000800FF00030E8301AA000A08AB008A018B13C4
:100018000B1D10280B11A10A8B172B088A002A0E1A
:080028008300FF0E7F0E0900AA
:0400300000000800C4
:10003400103083120313FD00FD0B1E28000008007E
:10004400083083120313FC002330FD00FD0B282825
:06005400FC0B2828080047
:10005A0083120313F801F9011030FC00710DF80D39
:10006A00F90D7408F8027508031C750FF9020318D4
:10007A0045287408F80775080318750FF90703105F
:0A008A00F00DF10DFC0B3328080007
:1000940083120313C91B5028881151288815491B42
:1000A4005528081156280815C91A5A2888105B289B
:1000B4008814491A5F28081060280814271864282F
:1000C400081665280812881618208812C9196C2881
:1000D40088116D2888154919712808117228081586
:1000E400C918762888107728881449187B2808109E
:1000F4007C280814271880280816812808128816D6
:1001040018208812271C8828222089281A200800F1
:0E0114008312031329088A00280882000800BD
:1001220083120313C7010530470203189F284708AB
:100132004607840020308000C70A942847084607F3
:1001420084008001C70347084607C8000A30F4004C
:10015200F5014408F0004508F1002D207808F00070
:100162007908F1003030F0074808840070088000F8
:100172000A30F400F5014408F0004508F1002D2092
:100182007008C4007108C50000307106031DCB2839
:1001920000307006031DCE28D028C703A42808000B
:1001A2008312031327104408C9004A2027140800A9
:1001B20083120313BC013C083B07840000080319A7
:1001C200EA283C083B0784000008C400D120BC0A8E
:0401D200DC2808001D
:1001D600FD28803083120313BB001029C030BB00FA
:1001E60010299430BB001029D430BB001029803070
:1001F600BB001029831203133B08013A0319EC28AC
:100206003B08023A0319F1283B08033A0319F4287C
:100216003B08043A0319F728FA283C03F0003B0888
:10022600F0077008BB007008C9004A202710BE01FD
:100236003E083D0784000008031929293E083D07AA
:1002460084000008C400D120BE0A1B292714080018
:1002560083120313C001C1013B08C2003C08C3005E
:1002660080303C06F00080307002031D3C290030CF
:100276003B0203184A290130C0000030C1003B0888
:10028600003CC2003C08031C013EC301C3024208F5
:10029600C4004308C5003D08C60091200630BE00D4
:1002A6000030BF003F08003C031D5B293E08003CB0
:1002B600031876293E083D07F20001303E02F000A1
:1002C6000030031C013E3F02F10070083D07840028
:1002D6000008F00072088400700880000130BE0239
:1002E600031CBF0355293D088400203080004008C8
:1002F600410403199429BE01BF013E083D0784004D
:100306000008203A031D8B29BE0A0319BF0A80295B
:100316000130BE02031CBF033E083D0784002D309A
:04032600800008004B
:10032A0083160313881208120810881008118811FE
:10033A0083128812081288110811881008102220C6
:10034A0022202220881408148816182088122220B5
:10035A00881618208812222088161820881222202F
:10036A000810881618208812222088161820881249
:10037A0088108815881618208812222088110814D7
:10038A008816182088120810881618208812222029
:10039A008816182088120814881618208812222015
:1003AA000810881618208812881508158814081449
:0C03BA0088161820881222202714080042
:1003C6008A208A110A128000840AA80A0319A90A37
:0803D600F003031DE3290800F8
:1003DE0083120313A001A101A201A301A401A5018F
:1003EE00A6018316870183128701243083168100AC
:1003FE00033083129000810183168112E0308B004E
:10040E00FF3083128F008E0195210130C9004A20E2
:10041E000C30C9004A200230BB000530BC0046300B
:10042E00AC005230AD004530AE004330AF00553019
:10043E00B0004530B1004E30B2004330B300493009
:10044E00B4004130B5003A30B600B7012C30BD00D3
:10045E00EB2021087B3A031D362A0130A00020082C
:10046E00013A031D542A0E08BB00BC012230BD0008
:10047E002B210330BB000530BC002230BD00EB2029
:10048E004830B8005A30B900BA013830BB00D92014
:0E049E000130F0000030F100552A302A552AB6
:04400E00F22B00078A
:00000001FF
