:020000005D2879
:10000800FF00030E8301A4000A08A5008A018B13D0
:100018000B1D12280B11A00A0319A10A8B1725081A
:0C0028008A00240E8300FF0E7F0E0900EA
:10003400831603139818202800001A2883123808FE
:040044009900080017
:0E0048008312031323088A0022088200080096
:1000560083120313B701350884000008B60036087A
:10006600003A031940283608B8001A20B70A37089C
:0C007600350784000008B600322808009E
:1000820024208A110A128000840AA20A0319A30AF0
:08009200F003031D41280800E2
:10009A0083160313981690308312980083168717D5
:1000AA00071383128C1E5C281A08F00056280800D1
:1000BA0083120313A001A101831685010317890185
:1000CA0003138801831288013F3083168100A03010
:1000DA008B0083128101831681120630990018154C
:1000EA004D206630A6007230A7006530A800633044
:1000FA00A9006530AA006E30AB006330AC006930ED
:10010A00AD006F30AE006D30AF006530B0007430B6
:10011A00B1007230B2006F30B300B4012630B500BE
:10012A002B2088092130FC007630FD00FD0B9B282E
:0A013A00FC0B9B2800009628A1286A
:04400E00F22F000786
:00000001FF
