:1000000080EF00F00000000000EF00F000000000B2
:0A0010000000000000000000F3D71C
:0E001C00ACB202D00000FCD713C1ADFF120041
:10002A000101126B0FC1E9FF10C1EAFFEECF11F116
:10003A001151000A0EE011C113F1EBDF0101122B7D
:10004A0012510F25E96E000E1021EA6EEECF11F162
:04005A00EFD71200CA
:10005E00F250026EF29E0500FF6A0150FE6E0050D5
:08006E00FD6E02BEF28E1200CD
:100076001DC0E1FF1EC0E2FF0DC1E6FF1BC000F080
:080086001CC001F0E9DF1200CB
:10008E000900F5CFE6FF0006FBE10106F9E11200DB
:10009E001C0E1B6E000E1C6E130E1D6E010E1E6EC0
:1000AE00FF0E176EFF0E186E000E196E000E1A6EF2
:1000BE00FF0E1F6EFF0E206E000E216E000E226EC2
:1000CE00FF0E236EFF0E246E000E256E000E266EA2
:1000DE00AC8A900EAB6E948E949C9EAA03D0AECF3B
:0600EE0000F0FBD7120038
:0C00F4000DC10FF10EC110F196DF1200DB
:10010000156A166A9590959483908394946AB8863C
:10011000040EB06EE10EAF6EAC84C1DF410E276EEF
:10012000540E286E2B0E296E430E2A6E4D0E2B6E2A
:10013000470E2C6E460E2D6E3D0E2E6E310E2F6E1E
:100140000A0E306E0D0E316E326A270E01010D6FF0
:10015000000E0E6FCFDF81AA76D081BC74D081BE35
:1001600072D001018384410E336E540E346E2B0E17
:10017000356E430E366E4D0E376E470E386E460E98
:10018000396E3D0E3A6E310E3B6E0A0E3C6E0D0E10
:100190003D6E3E6A330E0D6F000E0E6FABDF1F0E0D
:1001A0000B6E710E0C6E1E0E0D6E0D2EFED70C2EEC
:1001B000FCD70B2EFAD70000B80EF66E040EF76EC1
:1001C000000EF86E3F0EE16E000EE26E1A0E006E2B
:1001D000010E016E5CDF3F0E0D6F000E0E6F8ADFA9
:1001E0001F0E0B6E710E0C6E1E0E0D6E0D2EFED7B9
:1001F0000C2EFCD70B2EFAD70000D20EF66E040E92
:10020000F76E000EF86E590EE16E000EE26E190EDA
:10021000006E010E016E3BDF590E0D6F000E0E6F6A
:1002200069DF1A0E0D6F27DF3D0E0B6EE10E0C6EAF
:100230003F0E0D6E0D2EFED70C2EFCD70B2EFAD7CF
:1002400000000000839481AA5AD081AC58D081BEAE
:1002500056D083841F0E0B6E710E0C6E1E0E0D6E2B
:100260000D2EFED70C2EFCD70B2EFAD70000EB0E6E
:10027000F66E040EF76E000EF86E720EE16E000E52
:10028000E26E1A0E006E010E016E01DF720E0101A8
:100290000D6F000E0E6F2EDF1F0E0B6E710E0C6EAB
:1002A0001E0E0D6E0D2EFED70C2EFCD70B2EFAD780
:1002B0000000050EF66E050EF76E000EF86E8C0E41
:1002C000E16E000EE26E1A0E006E010E016EDFDEB0
:1002D0008C0E0D6F000E0E6F0DDF1A0E0D6FCBDE44
:1002E0003D0E0B6EE10E0C6E3F0E0D6E0D2EFED709
:1002F0000C2EFCD70B2EFAD700000000839481AAA5
:100300005ED081AC5CD081AE5AD083841F0E0B6E60
:10031000710E0C6E1E0E0D6E0D2EFED70C2EFCD720
:100320000B2EFAD700001F0EF66E050EF76E000EAC
:10033000F86EA60EE16E000EE26E1A0E006E010E51
:10034000016EA5DEA60E01010D6F000E0E6FD2DE4E
:100350001F0E0B6E710E0C6E1E0E0D6E0D2EFED747
:100360000C2EFCD70B2EFAD70000390EF66E050EB8
:10037000F76E000EF86EC00EE16E000EE26E1A0E01
:10038000006E010E016E83DEC00E0D6F000E0E6F4B
:10039000B1DE1A0E0D6F6FDE8394010E166E020E23
:1003A0000A6E310E0B6E620E0C6E450E0D6E0D2E2A
:1003B000FED70C2EFCD70B2EFAD70A2EF8D71650E4
:1003C000010A5EE1156A1550140811E38370100EDE
:1003D0000B6E390E0C6E0D0E0D6E0D2EFED70C2E03
:1003E000FCD70B2EFAD700000000152AECD783901B
:1003F000166A530EF66E050EF76E000EF86EDA0EE4
:10040000E16E000EE26E170E006E010E016E3FDE11
:10041000DA0E01010D6F000E0E6F6CDE1F0E0B6EFB
:10042000710E0C6E1E0E0D6E0D2EFED70C2EFCD70F
:100430000B2EFAD700006A0EF66E050EF76E000E50
:10044000F86EF10EE16E000EE26E1C0E006E010EF3
:10045000016E1DDEF10E0D6F000E0E6F4BDE1A0EDB
:100460000D6F09DE3D0E0B6EE10E0C6E3F0E0D6E34
:100470000D2EFED70C2EFCD70B2EFAD70000000055
:100480003D0E0B6EE10E0C6E3F0E0D6E0D2EFED767
:100490000C2EFCD70B2EFAD7000000005CD6FFD73D
:0C04A00041542B434D47463D310A0D00EE
:0C04AC0041542B434D47463D310A0D00E2
:1004B80041542B434D47533D222B35373330313789
:0A04C800373539353530220A0D00B2
:1004D2004E6976656C2064656C2072696F3A2031D2
:0904E200206D6574726F0A0D00B3
:1004EB0041542B434D47533D222B35373330313756
:0A04FB00373539353530220A0D007F
:100505004E6976656C2064656C2072696F3A20329D
:0A051500206D6574726F730A0D000B
:10051F0041542B434D47533D222B35373330313721
:0A052F00373539353530220A0D004A
:100539004E6976656C2064656C2072696F3A203368
:0A054900206D6574726F730A0D00D7
:1005530041542B434D47533D2233303137373539DF
:07056300353530220A0D00BE
:10056A005961206C6120736972656E6120657374CC
:0C057A006120617061676164610A0D001E
:020000040030CA
:0E000000240E1E1EFF8381FF0FC00FE00F4075
:00000001FF
