:02000000682D69
:10000800FF00030E8301C5000A08C4008A018B1390
:100018000B1D10280B11B60A8B1744088A00450ED1
:080028008300FF0E7F0E0900AA
:100030008316031398181E2800001828300883120E
:04004000990008001B
:0E004400F201F101F001F801F30100300800B3
:10005200FB14FB1F3328FF30F300F200F100F00025
:08006200FA0DF20CFF3008005A
:08006A00FA1FF2130030080038
:1000720083120313F801F9011030FC00710DF80D21
:10008200F90D7408F8027508031C750FF9020318BC
:1000920051287408F80775080318750FF90703103B
:0A00A200F00DF10DFC0B3F280800E3
:1000AC007B15FB1F60280130F300F201F101F00118
:0800BC00FA0DF20CFF30080000
:1000C40083160313AD012B0884000008AC002C0830
:1000D400003A031978282C08B00018208316AD0ABA
:0E00E4002D082B0784000008AC0069280800D6
:1000F200A0017208031D8E287108F2007008F10039
:10010200F001A0157208031D8E287108F200F1019A
:10011200A0112016720803199C282008F302031D5F
:10012200031CA0280310F21BA428F00DF10DF20D00
:10013200F30B9428A0280130FC002220A7280230CB
:0E014200FC005620A7280430FC0035200800E1
:1001500083120313FB017308031D77080319FF289B
:1001600072087606FA007708F3077E30031CBC2875
:10017000F30203180229BF28F302031C05297208A1
:10018000F8007108FC007008FD00F817F61703105E
:10019000F201F101F0011830A0007D1CD92874088B
:1001A000F00775080318750FF10776080318760F26
:1001B000F207F20CF10CF00CF80CFC0CFD0C031027
:1001C000A00BCD28F21BE928F80DF00DF10DF20D72
:1001D000F3037B1B701CFB28F81FFB28F00A031994
:1001E000F10A0319F20A031DFB28F20CF10CF00CC2
:1001F000F30A03190229FA1FF2130030072901300C
:100200002220072902302920072904305620000027
:020210000800E4
:1002120083120313FD01F8017008031900347406F8
:10022200FA00FA1BFD09FB01F41F1929F409F40A6B
:10023200F01F1D29F009F00A70087404FA00FA1B75
:1002420041297408F802F00D700DF80D7408F807D2
:10025200F00D0630FC00700DF80D74087018F802ED
:10026200701CF807F00DFC0B2C29701CF8077B188A
:100272004F29FD1F0034F009F00AF809F80A00348A
:10028200F41F4C29F01B49297008F800F0013A29A3
:10029200F001F00A0034F009FB0A2229F80A740876
:1002A2007802031D3A29F801F00AF01F3A29FF34B7
:0202B200080042
:1002B40083120313FA017308031D7A147708031DCC
:1002C400FA147A080319A629033A031971297A182A
:1002D4006E29F61FA429A229F21FA229A4297208B3
:1002E4008039FA00F21376088039F6137A06031976
:1002F4007F297A080319A229A4297708730203190C
:100304008629031C9A299E297608720203198D29CD
:10031400031C9A299E297508710203199429031C48
:100324009A299E29740870020319A62903189E2984
:10033400FA080319A429A229FA080319A229A4294D
:100344000314080003100800031403150800080030
:0E0354008312031343088A0042088200080047
:1003620083160313AE0105302E020318BF292E088F
:100372002D07840020308000AE0AB4292E082D07F4
:1003820084008001AE032E082D07AF000A30F4006E
:10039200F5012B08F0002C08F10039207808F00054
:1003A2007908F1003030F00783162F0884007008B6
:1003B20080000A30F400F5012B08F0002C08F1004F
:1003C200392070088316AB007108AC00003071064A
:1003D200031DED2900307006031DF029F229AE033A
:0403E200C429080022
:1003E600831603132B08F2007208F100F20A2C0898
:1003F600F000AC0A700884000008F0007108840060
:100406007008800071088400000803190B2AF72978
:060416002B08F0000800B5
:10041C0083160313A601A701A801A901AA0183123F
:10042C006A088316A20083126B088316A30083123A
:10043C006C088316A40083126D088316A50025088A
:10044C00FF3A031D332A2408FF3A031D332A2308DD
:10045C00FF3A031D332A2208FF3A031D3F2A831259
:10046C006E088316AB002D30AC00F3210330F00086
:10047C00B42C0130A000A41F502A80302406F000B8
:10048C007008A400A00AA70A83126E0884002D30FD
:10049C008000EE0A0030F00083162506031D602A4A
:1004AC0070082406031D602A70082306031D602AA9
:1004BC002208003A031D6B2A83126E088316AB00C8
:1004CC002130AC00F321F001B42C2508FF3A031DB8
:1004DC00792A2408003A031D792A2308003A031DBF
:1004EC00792A2208003A031D852A83126E08831686
:1004FC00AB002330AC00F3212008F000B42C00300A
:10050C00F4000030F5000030F6007F30F7002208D0
:10051C00F0002308F1002408F2002508F3005A210A
:10052C00013003180030F00070080319BA2A831642
:10053C002208F0002308F1002408F2002508F3003B
:10054C000030F4000030F5002030F6008230F70067
:10055C00A82070088316A2007108A3007208A400DA
:10056C007308A500AA03852A83160030F400003016
:10057C00F5002030F6008230F7002208F000230846
:10058C00F1002408F2002508F3005A210130031C65
:10059C000030F00070080319F02A83162208F000CE
:1005AC002308F1002408F2002508F300CD30F400F4
:1005BC00CC30F5004C30F6007B30F700A8207008EA
:1005CC008316A2007108A3007208A4007308A5008A
:1005DC00AA0ABA2A8316FF302205F800FF30230539
:1005EC00F9007F302405FA0000302505FB0078085F
:1005FC00F4007908F5007A08F6007B08F700F40D92
:10060C00F50DF60DF70D741000302205F0000030DA
:10061C002305F10000302405F200FF302505F3001E
:10062C007008A2007108A3007208A4007308A5004A
:10063C0074082204F00075082304F10076082404E1
:10064C00F20077082504F3007008A2007108A300DB
:10065C007208A4007308A5007F302502F000700812
:10066C00A1000130A5007008F4002208F000230856
:10067C00F1002408F2002508F300740803194D2B2F
:10068C00F00DF10DF20DF30D7010FF3E442B7008C0
:10069C00A2007108A3007208A4007308A500250825
:1006AC00303EF00083126E08840070088000EE0A61
:1006BC008316A70A80302A06F0008030013A7002B7
:1006CC00031C712B8030063AF00080302A06700231
:1006DC00031C712B7B2B83126E0884002E30800040
:1006EC00EE0A01308316A600A70A0630A1002108E5
:1006FC00003A0319E12BA5012208F0002308F100B0
:10070C002408F2002508F300F00DF10DF20DF30DA5
:10071C007010F00DF10DF20DF30D70102208F007B2
:10072C0023080318230FF10724080318240FF207DA
:10073C0025080318250FF3077008A2007108A30001
:10074C007208A4007308A5002208F0002308F10029
:10075C002408F2002508F300F00DF10DF20DF30D55
:10076C0070107008A2007108A3007208A40073082E
:10077C00A5002508303EF00083126E088400700836
:10078C008000EE0A8316A70A2608003A031DDF2B09
:10079C00AA032A08003A031DDF2B0130A90083129B
:1007AC006E0884002E308000EE0A01308316A600FD
:1007BC00A70AA1037D2B2908013A031DE62BA703E9
:1007CC00FF3083126E07840000082E3A031DF12BB4
:1007DC00EE038316A70383168030003AF0008030B6
:1007EC002A0670020318FC2B0130A80080302A0660
:1007FC00F0008030003A70020318062C0230A8007A
:10080C002A08A1008030093AF00080302A067002D4
:10081C00031C122CA80A142C0230A807280827073E
:10082C00F100F2010318F20A80307206F0008030F9
:10083C007002031D242C83126F08710203182F2CD5
:10084C0083126E08840030308000EE0A8316A70AEB
:10085C00142C83162A08003A0319722C83126E0882
:10086C00840065308000EE0A803083162A06F00082
:10087C008030003A700203184D2C83126E088400ED
:10088C002D308000EE0A83162A08003CAA002A08A4
:10089C00A1008030093AF00080302A06700203185B
:1008AC00632C0A30F4002108F00009213030F007E5
:1008BC006E08840070088000EE0A0A30F40083167B
:1008CC002108F00009217808F0003030F0076E089C
:1008DC00840070088000EE0A831628082707F000B1
:1008EC007008A70083126F087002F100710883165C
:1008FC00A1008030003AF0008030710670020318BD
:10090C00952C83168030003AF0008030210670025E
:10091C000318942CA1038312EE03872CAF2C803088
:10092C0083162106F0008030003A70020318AF2CB9
:10093C00831680302106F0008030003A70020318D4
:10094C00AF2CA10A83126E08840030308000EE0AAE
:0E095C009E2C83126E0884008001F0010800BA
:10096A0083160313A001A10183126A088316A20049
:10097A0083126B088316A300803083126B06F00083
:10098A0080307002031DCB2C00306A020318DE2C63
:10099A0001308316A0000030A10083126A08003CCF
:1009AA008316A20083126B08031C013E8316A3015F
:1009BA00A30283162208AB002308AC0083126C083A
:1009CA008316AD00B12106308312ED000030EE002F
:1009DA006E08003C031DF32C6D08003C03180E2D15
:1009EA006D086C07F20001306D02F0000030031C44
:1009FA00013E6E02F10070086C0784000008F000E6
:100A0A0072088400700880000130ED02031CEE03B6
:100A1A00ED2C6C0884002030800083162008210405
:100A2A0003192E2D8312ED01EE016D086C07840067
:100A3A000008203A031D252DED0A0319EE0A1A2D86
:100A4A000130ED02031CEE036D086C0784002D30A3
:040A5A008000080010
:100A5E00831203137008F8007108F000F101F2011F
:100A6E00F301FB01FC019630F300FA017008F1006E
:0C0A7E007808F000F801F201792008006F
:100A8A00AA218A110A128000840AC20A0319C30A17
:080A9A00F003031D452D0800C7
:100AA20083160313981690308312980083168717C3
:100AB200071383128C1E602D1A08F0005A2D0800AD
:0E0AC200831203136A088316AB00622008003B
:100AD000A42601308316031385000130831285009C
:100AE000013083160317880001300313880001309A
:100AF0008312880001309F00803083169F002430CD
:100B000081000330831290008101E0308B008F015F
:100B10008E01193083169900181551254630C600EC
:100B20005230C7004530C8004330C9005530CA00B4
:100B30004530CB004E30CC004330CD004930CE00A4
:100B40004130CF003A30D0000A30D1000D30D20011
:100B5000D3014630EA00612583129F149F1CB12DFA
:100B6000AE2D03301E05C00083161E088312B5008B
:100B7000081CBB2DB82D8316811283120818C12DB5
:100B8000BD2D831681168312081CD02D3708003A1C
:100B9000031DD02DB80A0319B90A0130B700D72DAB
:100BA0000818D72D3708013A031DD72DB70136088D
:100BB0007B3A031DDD2D0130C1004108013A031DC0
:100BC000572E4008F100F0013508F0070318F10A2C
:100BD0007008BA007108BB002F253108F4003208F4
:100BE000F5003308F6003408F700A8207008BC00B0
:100BF0007108BD007208BE007308BF003808EA0023
:100C00003908EB002730EC00B5242730831203139A
:100C1000EA00612548308312D4005A30D5000D30E7
:100C2000D6000A30D700D8015430EA00612541309F
:100C30008312D9004D30DA005030DB004C30DC003C
:100C40004930DD005430DE005530DF004430E00034
:100C50003A30E1000A30E2000D30E3002030E400D9
:100C60002030E5002030E600E7015930EA00612538
:100C700083123C08EA003D08EB003E08EC003F0808
:100C8000ED002730EE000530EF000E2227308312F2
:100C90000313EA00612556308312E800E901683049
:100CA000EA0061250130F0000030F100582EAC2D33
:020CB000582EBC
:100D480021308400213083120313F0008230C20066
:080D58000630C3004525080028
:100CBC004634523445344334553445344E3443343D
:0C0CCC00493441343A340A340D34003409
:0A0CD80048345A340D340A34003455
:100CE20041344D3450344C34493454345534443402
:0E0CF2003A340A340D342034203420340034D7
:040D00005634003431
:040D04003034003453
:080D080049344E344634003436
:0C0D10000034003400340034003400349F
:080D1C004E3461344E34003402
:080D24006834E8341F34773411
:020D2C00003491
:020D2E0000348F
:020D300000348D
:040D32000034003455
:040D36000034003451
:080D3A000034003400340034E1
:020D420000347B
:020D4400003479
:04400E00F22F000786
:00000001FF
