:020000002829AD
:10000800FF00030E8301AA000A08A9008A018B13C6
:100018000B1D10280B11A60A8B1729088A002A0E17
:080028008300FF0E7F0E0900AA
:100030008316031398181E280000182883125508E9
:04004000990008001B
:1000440083120313F801F9011030FC00710DF80D4F
:10005400F90D7408F8027508031C750FF9020318EA
:100064003A287408F80775080318750FF907031080
:0A007400F00DF10DFC0B2828080028
:10007E0083120313D201500884000008D1005108E6
:10008E00003A031954285108D5001820D20A5208F4
:0C009E00500784000008D100462808002C
:0E00AA008312031328088A002708820008002A
:1000B80083120313D3010530530203186A28530827
:1000C8005207840020308000D30A5F285308520763
:1000D80084008001D30353085207D4000A30F40087
:1000E800F5015008F0005108F10022207808F000CE
:1000F8007908F1003030F007540884007008800057
:100108000A30F400F5015008F0005108F1002220EF
:100118007008D0007108D10000307106031D9628C0
:1001280000307006031D99289B28D3036F28080008
:0C013800831203134708D0003F2008008A
:1001440083120313CC01CD014708CE004808CF0029
:1001540080304806F00080307002031DB328003060
:1001640047020318C1280130CC000030CD004708F5
:10017400003CCE004808031C013ECF01CF024E08CC
:10018400D0004F08D1004908D2005C200630CA00D4
:100194000030CB004B08003C031DD2284A08003C29
:1001A4000318ED284A084907F20001304A02F0001A
:1001B4000030031C013E4B02F10070084907840023
:1001C4000008F00072088400700880000130CA0240
:1001D400031CCB03CC2849088400203080004C0841
:1001E4004D0403190B29CA01CB014A0849078400AD
:1001F4000008203A031D0229CA0A0319CB0AF7286A
:100204000130CA02031CCB034A08490784002D307D
:04021400800008005E
:1002180055208A110A128000840AA70A0319A80A1D
:08022800F003031D0C2908007E
:10023000831603139816903083129800831687173D
:10024000071383128C1E27291A08F00021290800A1
:1002500083120313A001A101A201A301A401A5011E
:10026000A60183168701831287012430831681003B
:10027000033083129000810183168112E0308B00DD
:10028000FF3083128F008E011930831699001815E4
:1002900018217330AB006530AC002030AD00613008
:1002A000AE007230AF007230B0006530B100673020
:1002B000B2006C30B3006F30B4002030B500653050
:1002C000B6007330B7007430B8006130B900203028
:1002D000BA006D30BB006930BC006530BD007230C3
:1002E000BE006430BF006130C000C1012B30D000BF
:1002F0003F2026087B3A031D7F290130A5002508F1
:10030000013A031D9D290E08C700C8012030C9000D
:10031000A2202030C7009C204830C2005A30C300C1
:100320000D30C4000A30C500C6014230C7009C2011
:0E0330000130F0000030F1009E2979299E294D
:04400E00F22F000786
:00000001FF
