:02000000512D80
:10000800FF00030E8301C9000A08C8008A018B1388
:100018000B1D10280B11C20A8B1748088A00490EBD
:080028008300FF0E7F0E0900AA
:1000300083120313F801F9011030FC00710DF80D63
:10004000F90D7408F8027508031C750FF9020318FE
:1000500030287408F80775080318750FF90703109E
:0A006000F00DF10DFC0B1E28080046
:10006A00FB14FB1F3F28FF30F300F200F100F00001
:08007A00FA0DF20CFF30080042
:0E008200F201F101F001F801F3010030080075
:08009000FA1FF2130030080012
:100098007B15FB1F56280130F300F201F101F00136
:0800A800FA0DF20CFF30080014
:1000B0008316031398185E2800005828340883120A
:0400C000990008009B
:1000C400A0017208031D77287108F2007008F1007E
:1000D400F001A0157208031D77287108F200F101E0
:1000E400A01120167208031985282008F302031DA5
:1000F400031C89280310F21B8D28F00DF10DF20D5D
:10010400F30B7D2889280130FC004120902802301F
:0E011400FC004C2090280430FC00482008001D
:1001220083160313B1012F0884000008B0003008C1
:10013200003A0319A7283008B40058208316B10AE0
:0E01420031082F0784000008B000982808003C
:0E0150008312031347088A0046088200080045
:10015E0083120313FA017308031D7A147708031D23
:10016E00FA147A080319FB28033A0319C6287A18D9
:10017E00C328F61FF928F728F21FF728F928720866
:10018E008039FA00F21376088039F6137A060319CD
:10019E00D4287A080319F728F92877087302031967
:1001AE00DB28031CEF28F328760872020319E228D5
:1001BE00031CEF28F328750871020319E928031CA4
:1001CE00EF28F328740870020319FB280318F3288C
:1001DE00FA080319F928F728FA080319F728F92855
:1001EE000314080003100800031403150800080088
:1001FE0083120313FB017308031D77080319562995
:10020E0072087606FA007708F3077E30031C13296E
:10021E00F302031859291629F302031C5C297208EC
:10022E00F8007108FC007008FD00F817F6170310AF
:10023E00F201F101F0011830A0007D1C3029740884
:10024E00F00775080318750FF10776080318760F77
:10025E00F207F20CF10CF00CF80CFC0CFD0C031078
:10026E00A00B2429F21B4029F80DF00DF10DF20D13
:10027E00F3037B1B701C5229F81F5229F00A031935
:10028E00F10A0319F20A031D5229F20CF10CF00CBB
:10029E00F30A03195929FA1FF21300305E290130AF
:1002AE0041205E29023035205E2904304C200000AA
:0202BE00080036
:1002C00083160313B2010530320203186E29320877
:1002D0003107840020308000B20A632932083107D8
:1002E00084008001B20332083107B3000A30F40001
:1002F000F5012F08F0003008F10018207808F00010
:100300007908F1003030F007831633088400700854
:1003100080000A30F400F5012F08F0003008F100E9
:10032000182070088316AF007108B0000030710605
:10033000031D9C2900307006031D9F29A129B203CB
:040340007329080015
:10034400831603132F08F2007208F100F20A300832
:10035400F000B00A700884000008F00071088400FE
:10036400700880007108840000080319BA29A629BE
:060374002F08F000080054
:10037A0083120313FD01F80170080319003474068F
:10038A00FA00FA1BFD09FB01F41FCD29F409F40A4E
:10039A00F01FD129F009F00A70087404FA00FA1B58
:1003AA00F5297408F802F00D700DF80D7408F807B5
:1003BA00F00D0630FC00700DF80D74087018F80284
:1003CA00701CF807F00DFC0BE029701CF8077B186D
:1003DA00032AFD1F0034F009F00AF809F80A00346C
:1003EA00F41F002AF01BFD297008F800F001EE291D
:1003FA00F001F00A0034F009FB0AD629F80A740859
:10040A007802031DEE29F801F00AF01FEE29FF34E5
:02041A000800D8
:10041C0083160313AA01AB01AC01AD01AE01200898
:10042C00A6002108A7002208A8002308A900290873
:10043C00FF3A031D2B2A2808FF3A031D2B2A2708F5
:10044C00FF3A031D2B2A2608FF3A031D352A2408E0
:10045C00AF002130B000A2210330F000A22C0130FB
:10046C008312EE008316A81F492A80302806F0005C
:10047C007008A8008312EE0A8316AB0A24088400C5
:10048C002D308000A40A0030F0002906031D582AE4
:10049C0070082806031D582A70082706031D582AC1
:1004AC002608003A031D612A2408AF002530B0004D
:1004BC00A221F001A22C2908FF3A031D6F2A28085B
:1004CC00003A031D6F2A2708003A031D6F2A2608DD
:1004DC00003A031D7A2A2408AF002E30B000A22166
:1004EC0083126E08F000A22C0030F4000030F500EE
:1004FC000030F6007F30F70083162608F00027083E
:10050C00F1002808F2002908F300AF20013003188D
:10051C000030F00070080319B02A83162608F0008A
:10052C002708F1002808F2002908F3000030F40035
:10053C000030F5002030F6008230F700FF20700804
:10054C008316A6007108A7007208A8007308A900FA
:10055C00AE037A2A83160030F4000030F500203008
:10056C00F6008230F7002608F0002708F100280872
:10057C00F2002908F300AF200130031C0030F0001A
:10058C0070080319E62A83162608F0002708F100E4
:10059C002808F2002908F300CD30F400CC30F50027
:1005AC004C30F6007B30F700FF2070088316A60055
:1005BC007108A7007208A8007308A900AE0AB02A37
:1005CC008316FF302605F800FF302705F9007F3031
:1005DC002805FA0000302905FB007808F40079089A
:1005EC00F5007A08F6007B08F700F40DF50DF60D12
:1005FC00F70D741000302605F00000302705F100CF
:10060C0000302805F200FF302905F3007008A60021
:10061C007108A7007208A8007308A90074082604C2
:10062C00F00075082704F10076082804F20077081A
:10063C002904F3007008A6007108A7007208A8002E
:10064C007308A9007F302902F00070088312EF00B4
:10065C0001308316A9007008F4002608F000270862
:10066C00F1002808F2002908F30074080319452B3F
:10067C00F00DF10DF20DF30D7010FF3E3C2B7008D8
:10068C00A6007108A7007208A8007308A900290821
:10069C00303EF0002408840070088000A40AAB0AE5
:1006AC0080302E06F0008030013A7002031C672B5C
:1006BC008030063AF00080302E067002031C672B47
:1006CC006F2B240884002E308000A40A0130AA006D
:1006DC00AB0A06308312EF006F08003A0319D42BD3
:1006EC008316A9012608F0002708F1002808F2005B
:1006FC002908F300F00DF10DF20DF30D7010F00D53
:10070C00F10DF20DF30D70102608F00727080318F1
:10071C00270FF10728080318280FF20729080318D8
:10072C00290FF3077008A6007108A7007208A8002B
:10073C007308A9002608F0002708F1002808F20029
:10074C002908F300F00DF10DF20DF30D7010700887
:10075C00A6007108A7007208A8007308A900290850
:10076C00303EF0002408840070088000A40AAB0A14
:10077C002A08003A031DD12BAE032E08003A031DA4
:10078C00D12B0130AD00240884002E308000A40A47
:10079C000130AA00AB0A8312EF03722B83162D08CB
:1007AC00013A031DDA2BAB03FF3024078400000849
:1007BC002E3A031DE32BA403AB038030003AF00068
:1007CC0080302E0670020318ED2B0130AC00803007
:1007DC002E06F0008030003A70020318F72B02301E
:1007EC00AC002E088312EF008030093AF000803004
:1007FC0083162E067002031C052CAC0A072C023043
:10080C00AC072C082B07F100F2010318F20A803018
:10081C007206F00080307002031D162C2508710240
:10082C0003181F2C2408840030308000A40AAB0A63
:10083C00072C2E08003A0319622C2408840065301A
:10084C008000A40A80302E06F0008030003A70023E
:10085C000318382C240884002D308000A40A2E089C
:10086C00003CAE002E088312EF008030093AF000F5
:10087C00803083162E0670020318522C0A30F400B6
:10088C0083126F08F000BD213030F0078316240866
:10089C00840070088000A40A0A30F40083126F08E8
:1008AC00F000BD217808F0003030F00783162408E2
:1008BC00840070088000A40A2C082B07F000700834
:1008CC00AB0025087002F10071088312EF00803034
:1008DC00003AF0008030710670020318832C8312EA
:1008EC008030003AF00080306F0670020318822CC2
:1008FC00EF038316A403752C9D2C803083126F0696
:10090C00F0008030003A700203189D2C8312803066
:10091C006F06F0008030003A700203189D2CEF0A2D
:10092C0083162408840030308000A40A8C2C831693
:0A093C00240884008001F001080087
:0E094600831203136E088316AF009120080081
:10095400831203137008F8007108F000F101F2012A
:10096400F301FB01FC019630F300FA017008F10079
:0C0974007808F000F801F2016220080091
:1009800083160313981690308312980083168717E6
:10099000071383128C1ECF2C1A08F000C92C0800F4
:1009A000A8208A110A128000840AC60A0319C70AFD
:0809B000F003031DD02C080028
:1009B80083160313A301A4012008A5002108A6009B
:1009C80080302106F00080307002031DED2C0030CD
:1009D80020020318FB2C0130A3000030A4002008DB
:1009E800003CA5002108031C013EA601A60225081B
:1009F800AF002608B0002208B1006021063083123B
:100A0800EE000030EF006F08003C031D0D2D6E084E
:100A1800003C03182C2D6E0883162207F2000130C3
:100A280083126E02F0000030031C013E6F02F100D9
:100A380070088316220784000008F00072088400FA
:100A48007008800001308312EE02031CEF03072DAB
:100A58008316220884002030800023082404031908
:100A6800502D8312EE01EF016E08831622078400D1
:100A78000008203A031D452D8312EE0A0319EF0AD8
:100A8800382D83120130EE02031CEF036E08831623
:0A0A9800220784002D3080000800C2
:100AA200CC260130831603138500013083128500A2
:100AB20001308316031788000130031388000130C8
:100AC2008312880001309F00803083169F002430FB
:100AD2008100033083129000810183168112E0307D
:100AE2008B0083128F018E0119308316990018151D
:100AF200C02483129F149F1C7F2D7C2D03301E0562
:100B0200F3007308C30083161E088312B40073082F
:100B1200F100F0013408F0070318F10A7008B2007E
:100B22007108B300AA243508F4003608F500370826
:100B3200F6003808F700FF207008B9007108BA0003
:100B42007208BB007308BC00081CB12D3D08003AB6
:100B5200031DB12DC40A0319C50A0130BD00B82D09
:100B62000818B82D3D08013A031DB82DBD013908FA
:100B7200F4003A08F5003B08F6003C08F7003E088E
:100B8200F0003F08F1004008F2004108F300AF20F6
:100B9200013003180030F00070080319F02D3908F5
:100BA200F4003A08F5003B08F6003C08F700003074
:100BB200F0000030F1002030F2008130F300AF206D
:100BC2000130031C0030F00070080319F02D3908C1
:100BD200BE003A08BF003B08C0003C08C100420802
:100BE2007B3A031DF62D0130A7002708013A031DA9
:100BF2007B2E4630CA005230CB004530CC00433009
:100C0200CD005530CE004530CF004E30D0004330BD
:100C1200D1004930D2004130D3003A30D4000A30FA
:100C2200D5000D30D600D7014A30EE00A32483123E
:100C320044088316A000831245088316A1002830B9
:100C4200A200DC2428308312EE00A3244830831251
:100C5200D8005A30D9000D30DA000A30DB00DC014E
:100C62005830EE00A32441308312DD004D30DE0007
:100C72005030DF004C30E0004930E1005430E200F7
:100C82005530E3004430E4003A30E5000A30E60033
:100C92000D30E7002030E8002030E9002030EA0083
:100CA200EB015D30EE00A32483123E088316A00000
:100CB20083123F088316A100831240088316A20004
:100CC200831241088316A3002830A4000530A50032
:100CD2000E22283083120313EE00A324563083120F
:100CE200EC00ED016C30EE00A3240130F000003086
:080CF200F1007C2E7A2D7C2E0E
:100D980021308400253083120313F0008230C6000E
:080DA8000630C700D02408004A
:080D04004E3461344E3400341A
:040D0C00303400344B
:020D10000034AD
:0C0D12000034003400340034003400349D
:080D1E0049344E344634003420
:040D26000034003461
:020D2A00003493
:080D2C006834E8341F34773409
:080D34000034003400340034E7
:020D3C00003481
:080D3E000034003400340034DD
:020D4600003477
:020D4800003475
:040D4A00003400343D
:100D4E004634523445344334553445344E344334AA
:0C0D5E00493441343A340A340D34003476
:0A0D6A0048345A340D340A340034C2
:100D740041344D3450344C3449345434553444346F
:0E0D84003A340A340D34203420342034003444
:040D9200563400349F
:04400E00F22F000786
:00000001FF
