:040000008A15002835
:10000800FF00030E8301E5000A08E4008A018B1350
:100018000B1D10280B11A80A8B1764088A00650E9F
:080028008300FF0E7F0E0900AA
:0E003000F201F101F001F801F30100300800C7
:10003E007B15FB1F29280130F300F201F101F001BD
:08004E00FA0DF20CFF3008006E
:1000560083120313F801F9011030FC00710DF80D3D
:10006600F90D7408F8027508031C750FF9020318D8
:1000760043287408F80775080318750FF907031065
:0A008600F00DF10DFC0B312808000D
:10009000FB14FB1F5228FF30F300F200F100F000C8
:0800A000FA0DF20CFF3008001C
:1000A8008316031398185A2800005428831203173C
:0800B80027080313990008005A
:0800C000FA1FF21300300800E2
:1000C8007C189A28FC186B287C19B9286428A00188
:1000D8007208031D8B287108F2007008F100780877
:1000E800F000F801A0157208031D8B287108F200B2
:1000F8007008F100F001A01120167208031D8B286A
:100108007108F200F101A01572080319AD28200842
:10011800F302031D031CB1280310F21B9A28F80DE3
:10012800F00DF10DF20DF30B9128B1287B1B701C1B
:10013800B528F81FB528F00A0319F10A0319F20ABD
:10014800031DB528F20CF10CF00CF30A0319B928B9
:10015800B5280130FC001820BC280230FC001F2004
:10016800BC280430FC006020BC280830FC00482073
:04017800000008007B
:10017C0083120317A501053025020318CC28250886
:10018C002407840020308000A50AC12825082407F4
:10019C0084008001A50325082407A6000A30F4007A
:1001AC00F5012208F0002308F1002B207808F0005C
:1001BC007908F1003030F007031726088400700826
:1001CC0080000A30F400F5012208F0002308F10049
:1001DC002B2070080317A2007108A30000307106D1
:1001EC00031DFA2800307006031DFD28FF28A50307
:0401FC00D1280800FE
:1002000083120313FB017308031D77080319572991
:1002100072087606FA007708F3077E30031C14296B
:10022000F30203185A291729F302031C5D297208E7
:10023000F8007108FC007008FD00F817F6170310AD
:10024000F201F101F0011830A0007D1C3129740881
:10025000F00775080318750FF10776080318760F75
:10026000F207F20CF10CF00CF80CFC0CFD0C031076
:10027000A00B2529F21B4129F80DF00DF10DF20D0F
:10028000F3037B1B701C5329F81F5329F00A031931
:10029000F10A0319F20A031D5329F20CF10CF00CB8
:1002A000F30A03195A29FA1FF21300305F290130AB
:1002B00018205F29023048205F2904301F200000E9
:0202C000080034
:0E02C2008312031363088A006208820008009A
:1002D00083120313FD01F80170080319003474063A
:1002E000FA00FA1BFD09FB01F41F7829F409F40A4E
:1002F000F01F7C29F009F00A70087404FA00FA1B58
:10030000A0297408F802F00D700DF80D7408F807B4
:10031000F00D0630FC00700DF80D74087018F8022E
:10032000701CF807F00DFC0B8B29701CF8077B186C
:10033000AE29FD1F0034F009F00AF809F80A00346C
:10034000F41FAB29F01BA8297008F800F0019929C7
:10035000F001F00A0034F009FB0A8129F80A740858
:100360007802031D9929F801F00AF01F9929FF343A
:02037000080083
:10037200A0017208031DCE297108F2007008F10075
:10038200F001A0157208031DCE297108F200F101D7
:10039200A011201672080319DC292008F302031D9C
:1003A200031CE0290310F21BE429F00DF10DF20DFC
:1003B200F30BD429E0290130FC001820E729023090
:0E03C200FC001F20E7290430FC00602008002A
:1003D00083120317A401220884000008A300230845
:1003E000003A0319FE292308A70054200317A40A82
:0E03F0002408220784000008A300EF2908005B
:1003FE00831203172208F2007208F100F20A230892
:10040E00F000A30A700884000008F0007108840050
:10041E00700880007108840000080319172A032A47
:06042E002208F0000800A6
:1004340083120313FA017308031D7A147708031D4A
:10044400FA147A080319662A033A0319312A7A1826
:100454002E2AF61F642A622AF21F622A642A72086C
:100464008039FA00F21376088039F6137A060319F4
:100474003F2A7A080319622A642A77087302031947
:10048400462A031C5A2A5E2A7608720203194D2A48
:10049400031C5A2A5E2A750871020319542A031C84
:1004A4005A2A5E2A740870020319662A03185E2AFF
:1004B400FA080319642A622AFA080319622A642AC8
:1004C40003140800031008000314031508000800AF
:1004D4008312031373087706031D7D2A72087606B8
:1004E400031D7D2A71087506031D7D2A7008740694
:0C04F4000319031508000311080008009C
:100500008312031372087606A000F801F90173083C
:100510007702031CA32A7708FD007308F7007D0803
:10052000F3007608FD007208F6007D08F2007508F9
:10053000FD007108F5007D08F1007408FD007008E9
:10054000F4007D08F000770803191C2B7208FA00EC
:10055000F217F61777087302F7000319D62A083046
:100560007702031CCC2AF7007408F9007508F40020
:100570007608F500F60108307702031CCC2AF70054
:100580007408F9007508F400F50108307702031CBF
:10059000CC2A7A08F2001C2B77080319D62A0310FC
:1005A000F60CF50CF40CF90CF70BCF2AA01FE32A7C
:1005B000F909F409F509F609F90A0319F40A031906
:1005C000F50A0319F60A7908F80774080318740F76
:1005D000F00775080318750FF10776080318760FF2
:1005E000F207A01BFC2A031C0C2BF20CF10CF00CE4
:1005F000F80CF30F0C2B182B0318102BF809F0092B
:10060000F109F209F80A0319F00A0319F10A0319AA
:10061000F20A8030FA06142B0130FC0064201E2BF5
:100620000230FC0064201E2B0430FC00B9211E2B7C
:100630000830FC0048201E2B0030FC0000000800A1
:0E064000831203136F080317A200E8210800BD
:10064E0083160313EE01EF01831203179F01A0011E
:10065E00A101831603136308EA006408EB00650822
:10066E00EC006608ED006D08FF3A031D482B6C0880
:10067E00FF3A031D482B6B08FF3A031D482B6A08EF
:10068E00FF3A031D542B670883120317A200323062
:10069E00A300FF210330F000F02D8312013003136D
:1006AE00EF008316EC1F692B80306C06F00070088B
:1006BE00EC008312EF0A8316EF0A670884002D30D0
:1006CE008000E70A0030F0006D06031D782B7008DD
:1006DE006C06031D782B70086B06031D782B6A08B9
:1006EE00003A031D832B670883120317A2003630CE
:1006FE00A300FF21F001F02D831603136D08FF3ABE
:10070E00031D932B6C08003A031D932B6B08003AC4
:10071E00031D932B6A08003A031DA02B6708831252
:10072E000317A2002E30A300FF2103136F08F00061
:10073E00F02D03130030F4000030F5000030F60009
:10074E007F30F70083166A08F0006B08F1006C0822
:10075E00F2006D08F3001A22013003180030F00089
:10076E0070080319D92B83166A08F0006B08F10084
:10077E006C08F2006D08F3000030F4000030F50054
:10078E002030F6008230F700002170088316EA0050
:10079E007108EB007208EC007308ED00831203176A
:1007AE00A103A02B0030F4000030F5002030F6003D
:1007BE008230F700831603136A08F0006B08F1000D
:1007CE006C08F2006D08F3001A220130031C003091
:1007DE00F00070080319122C83166A08F0006B08DB
:1007EE00F1006C08F2006D08F300CD30F400CC304F
:1007FE00F5004C30F6007B30F700002170088316B0
:10080E00EA007108EB007208EC007308ED00831229
:10081E000317A10AD92BFF30831603136A05F800BC
:10082E00FF306B05F9007F306C05FA0000306D0566
:10083E00FB007808F4007908F5007A08F6007B08CA
:10084E00F700F40DF50DF60DF70D741000306A0576
:10085E00F00000306B05F10000306C05F200FF3047
:10086E006D05F3007008EA007108EB007208EC00E9
:10087E007308ED0074086A04F00075086B04F1004B
:10088E0076086C04F20077086D04F3007008EA0035
:10089E007108EB007208EC007308ED007F306D02FA
:1008AE00F0007008E9000130ED007008F4006A08ED
:1008BE00F0006B08F1006C08F2006D08F30074088C
:1008CE000319702CF00DF10DF20DF30D7010FF3EAB
:1008DE00672C831603137008EA007108EB00720888
:1008EE00EC007308ED006D08303EF00067088400E0
:1008FE0070088000E70AEF0A803083120317210682
:10090E00F0008030013A7002031C962C8030063ABB
:10091E00F000803021067002031C962CA02C83164A
:10092E000313670884002E308000E70A0130EE00C2
:10093E00EF0A831603130630E9006908003A03191B
:10094E000A2DED016A08F0006B08F1006C08F20048
:10095E006D08F300F00DF10DF20DF30D7010F00DAA
:10096E00F10DF20DF30D70106A08F0076B08031805
:10097E006B0FF1076C0803186C0FF2076D08031864
:10098E006D0FF3077008EA007108EB007208EC00B7
:10099E007308ED006A08F0006B08F1006C08F200B5
:1009AE006D08F300F00DF10DF20DF30D70107008DF
:1009BE00EA007108EB007208EC007308ED006D0898
:1009CE00303EF0006708840070088000E70AEF0AE6
:1009DE006E08003A031D062D83120317A10321088A
:1009EE00003A031D062D0130A0008316031367087D
:1009FE0084002E308000E70A0130EE00EF0A8316E5
:100A0E000313E903A42C831203172008013A031DD4
:100A1E00132D83160313EF0383160313FF3067079B
:100A2E00840000082E3A031D1E2DE703EF038030CD
:100A3E00003AF0008030831203172106700203186B
:100A4E002A2D01309F0080302106F0008030003AC0
:100A5E0070020318342D02309F00210883160313F1
:100A6E00E9008030093AF000803083120317210626
:100A7E007002031C442D9F0A462D02309F078312DD
:100A8E0003171F08831603136F07F100F2010318F3
:100A9E00F20A80307206F00080307002031D592D6C
:100AAE00680871020318622D6708840030308000D8
:100ABE00E70AEF0A462D831203172108003A03199D
:100ACE00B32D831603136708840065308000E70A90
:100ADE008030831203172106F0008030003A700236
:100AEE000318852D83160313670884002D308000AC
:100AFE00E70A831203172108003CA1002108831680
:100B0E000313E9008030093AF00080308312031796
:100B1E00210670020318A22D0A30F4008316031367
:100B2E006908F00068213030F007831667088400EA
:100B3E0070088000E70A831603130A30F400690870
:100B4E00F00068217808F0003030F007831667084F
:100B5E00840070088000E70A831203171F088316AB
:100B6E0003136F07F0007008EF0068087002F100C1
:100B7E007108E9008030003AF00080307106700292
:100B8E000318D52D8030003AF000803069067002CF
:100B9E000318D42DE903E703C92DEC2D8030690627
:100BAE00F0008030003A70020318EC2D8030690698
:100BBE00F0008030003A70020318EC2DE90A670845
:100BCE00840030308000E70ADD2D67088400800144
:040BDE00F00108001A
:100BE20061218A110A128000840AE20A0319E30AC7
:080BF200F003031DF12D0800C2
:100BFA00831203137008F8007108F000F101F20182
:100C0A00F301FB01FC019630F300FA017008F100D0
:0C0C1A007808F000F801F201B921080090
:100C260083160313E801E9016308EA006408EB0090
:100C360080306406F00080307002031D242E0030E0
:100C460063020318322E0130E8000030E900630821
:100C5600003CEA006408031C013EEB01EB026A0853
:100C660083120317A200831603136B08831203175C
:100C7600A30083160313650883120317A400BE207E
:100C8600063083160313E6000030E7006708003CD1
:100C9600031D4F2E6608003C03186A2E660865077A
:100CA600F20001306602F0000030031C013E6702CC
:100CB600F1007008650784000008F00072088400DF
:100CC600700880000130E602031CE703492E650820
:100CD600840020308000680869040319882EE60124
:100CE600E7016608650784000008203A031D7F2E89
:100CF600E60A0319E70A742E0130E602031CE7032D
:0C0D06006608650784002D30800008009E
:100D12008316031398169030831298008316871750
:100D2200071383128C1E982E1A08F000922E0800C8
:100DB40021308400413083120313F0009930E200A3
:080DC4000630E300F1250800F0
:101000008A11DA268A150130831603138500013010
:101010008312850001308316031788000130031303
:10102000880001308312880001309F0080308316D1
:101030009F002430810003308312900081018316C9
:101040008112E0308B0083128F018E0119308316DC
:10105000990018158A1189268A1503139F149F1C5D
:1010600032282F2803301E05F3007308E100831691
:101070001E088312D0007308F100F0015008F00739
:101080000318F10A7008D1007108D2008A11FD25F9
:101090008A155308F4005408F5005508F600560860
:1010A000F7008A1100218A157008D7007108D8004E
:1010B0007208D9007308DA006008F400F40D7410A7
:1010C000F40D74107408383E8400700880007108B4
:1010D000840A80007208840A80007308840A8000F1
:1010E0000330600203187528E00A081C81285F0895
:1010F000003A031D8128DB0A0319DC0A0130DF00F6
:101100008B2808188B285F08013A031D8B28DF0104
:10111000DD0A0319DE0A5F08013A031DD0280030FA
:101120005E06031D952800305D06031DD028480883
:10113000F4004908F5004A08F6004B08F700570884
:10114000F0005808F1005908F2005A08F3008A111B
:101150001A228A15013003180030F00070080319B4
:10116000D028033029020318D0284C08F0004D087D
:10117000F1004E08F2004F08F3000030F400003098
:10118000F5000030F6007F30F7008A1180228A15C2
:101190007008CC007108CD007208CE007308CF0033
:1011A0005708C8005808C9005908CA005A08CB0097
:1011B000A90A5708F4005808F5005908F6005A081B
:1011C000F7002A08F0002B08F1002C08F2002D0887
:1011D000F3008A111A228A15013003180030F0003A
:1011E0007008031915295708F4005808F500590824
:1011F000F6005A08F7000030F0000030F10020300F
:10120000F2008130F3008A111A228A150130031C82
:101210000030F0007008031915295708AA00580873
:10122000AB005908AC005A08AD0028087B3A031DF2
:101230001C298B130130A1002108013A031D812ACA
:101240003C08F4003D08F5003E08F6003F08F700B2
:101250003808F0003908F1003A08F2003B08F300C2
:101260008A116A228A150130031D0030F0007008CF
:1012700003196C294630E6004F30E7005230E80091
:101280004D30E9004130EA003A30EB00EC016630C5
:10129000EF008A1120238A15523083160313A00011
:1012A0004530A1004330A2005430A3004130A400D7
:1012B0004E30A5004730A6005530A7004C30A8009E
:1012C0004130A9005230AA00AB01A0308312EF00D8
:1012D0008A1120238A15E7290030F4000030F50038
:1012E0000030F6007F30F70003134C08F0004D0883
:1012F000F1004E08F2004F08F3008A111A228A15F5
:101300000130031C0030F00070080319B929463081
:101310008316AC004F30AD005230AE004D30AF0000
:101320004130B0003A30B100B201AC308312EF006E
:101330008A1120238A15543083160313B3005230C8
:10134000B4004930B5004130B6004E30B7004730E8
:10135000B8005530B9004C30BA004130BB005230B3
:10136000BC00BD01B3308312EF008A1120238A151F
:10137000E729463083160313BE004F30BF005230BA
:10138000C0004D30C1004130C2003A30C300C4013A
:10139000BE308312EF008A1120238A155330831642
:1013A0000313C5004530C6004E30C7004F30C8009B
:1013B0004930C9004430CA004130CB004C30CC0029
:1013C000CD01C5308312EF008A1120238A150A301F
:1013D00083160313CE000D30CF004630D0005230BC
:1013E000D1004530D2004330D3005530D4004530D1
:1013F000D5004E30D6004330D7004930D8004130B8
:10140000D9003A30DA000A30DB000D30DC00DD01B3
:10141000CE308312EF008A1120238A1503135B0854
:101420008316E30083125C088316E4002230E50093
:101430008A1113268A1522308312EF008A11202385
:101440008A15483083160313DE005A30DF000D3052
:10145000E0000A30E100E201DE308312EF008A1181
:1014600020238A15413090004D3091005030920079
:101470004C3093004930940054309500553096001C
:10148000443097003A3098000A3099000D309A00A5
:1014900020309B0020309C0020309D009E011030A9
:1014A0000313EF008A1120238A1503132A088316D9
:1014B000E30083122B088316E40083122C088316A2
:1014C000E50083122D088316E6002230E700053080
:1014D000E8008A1127238A15223083120313EF00B4
:1014E0008A1120238A1556300313ED00EE016D306A
:1014F000EF008A1120238A150130F0000030F1003E
:06150000822A2D28822A38
:020D320000348B
:0C0D34000034003400340034003400347B
:020D400000347D
:020D420000347B
:080D44000034003400340034D7
:080D4C0049344E3446340034F2
:080D54004E3461344E340034CA
:040D5C0030340034FB
:100D600000340034003400340034003400340034E3
:100D700000340034003400340034003400340034D3
:100D800000340034003400340034003400340034C3
:020D900000342D
:040D920000340034F5
:080D96006834E8341F3477349F
:080D9E0000340034003400347D
:040DA60000340034E1
:040DAA0000340034DD
:020DAE0000340F
:020DB00000340D
:020DB20000340B
:04400E00F22F000786
:00000001FF
