:02000000BD2A17
:10000800FF00030E8301CE000A08CD008A018B137E
:100018000B1D10280B11A50A8B174D088A004E0ED0
:080028008300FF0E7F0E0900AA
:0E003000F201F101F001F801F30100300800C7
:10003E007B15FB1F29280130F300F201F101F001BD
:08004E00FA0DF20CFF3008006E
:08005600FA1FF213003008004C
:10005E00FB14FB1F3928FF30F300F200F100F00013
:08006E00FA0DF20CFF3008004E
:10007600A0017208031D50287108F2007008F100F3
:10008600F001A0157208031D50287108F200F10155
:10009600A0112016720803195E282008F302031D1A
:1000A600031C62280310F21B6628F00DF10DF20DF9
:1000B600F30B562862280130FC001820692802300C
:0E00C600FC001F2069280430FC002B200800DD
:1000D400831603139818702800006A2883125608A0
:0400E4009900080077
:1000E8007C18AA28FC187B287C19C9287428A00128
:1000F8007208031D9B287108F2007008F100780847
:10010800F000F801A0157208031D9B287108F20081
:100118007008F100F001A01120167208031D9B2839
:100128007108F200F101A01572080319BD28200812
:10013800F302031D031CC1280310F21BAA28F80DA3
:10014800F00DF10DF20DF30BA128C1287B1B701CDB
:10015800C528F81FC528F00A0319F10A0319F20A7D
:10016800031DC528F20CF10CF00CF30A0319C92879
:10017800C5280130FC001820CC280230FC001F20C4
:10018800CC280430FC002B20CC280830FC002F2081
:04019800000008005B
:10019C0083120313D501530884000008D4005408BB
:1001AC00003A0319E3285408D6006A20D50A5508EA
:0C01BC00530784000008D400D528080078
:1001C8008312031372087606A000F801F901730878
:1001D8007702031C07297708FD007308F7007D08DC
:1001E800F3007608FD007208F6007D08F200750835
:1001F800FD007108F5007D08F1007408FD00700825
:10020800F4007D08F0007708031980297208FA00C5
:10021800F217F61777087302F70003193A2908301E
:100228007702031C3029F7007408F9007508F400F8
:100238007608F500F60108307702031C3029F7002C
:100248007408F9007508F400F50108307702031CFA
:1002580030297A08F2008029770803193A2903100F
:10026800F60CF50CF40CF90CF70B3329A01F4729F1
:10027800F909F409F509F609F90A0319F40A031941
:10028800F50A0319F60A7908F80774080318740FB1
:10029800F00775080318750FF10776080318760F2D
:1002A800F207A01B6029031C7029F20CF10CF00C5A
:1002B800F80CF30F70297C2903187429F809F00940
:1002C800F109F209F80A0319F00A0319F10A0319E6
:1002D800F20A8030FA0678290130FC00742082295D
:1002E8000230FC00742082290430FC003B20822963
:1002F8000830FC002F2082290030FC000000080094
:0E0308008312031340088A003F088200080099
:1003160083120313F8010830FC00700DF80D740801
:10032600F80203189829F8070310F00DFC0B902922
:020336000800BD
:0C033800831203134F08D300CE200800EE
:1003440083120313FA017308031D7A147708031D3B
:10035400FA147A080319EE29033A0319B9297A1809
:10036400B629F61FEC29EA29F21FEA29EC297208BA
:100374008039FA00F21376088039F6137A060319E5
:10038400C7297A080319EA29EC29770873020319A3
:10039400CE29031CE229E629760872020319D5291D
:1003A400031CE229E629750871020319DC29031CE0
:1003B400E229E629740870020319EE290318E629D4
:1003C400FA080319EC29EA29FA080319EA29EC299D
:1003D40003140800031008000314031508000800A0
:0C03E400831203138030F606E4200800AA
:1003F00083120313FB017308031D770803194F2AA7
:1004000072087606FA007708F3077E30031C0C2A80
:10041000F3020318522A0F2AF302031C552A72080A
:10042000F8007108FC007008FD00F817F6170310BB
:10043000F201F101F0011830A0007D1C292A740896
:10044000F00775080318750FF10776080318760F83
:10045000F207F20CF10CF00CF80CFC0CFD0C031084
:10046000A00B1D2AF21B392AF80DF00DF10DF20D2B
:10047000F3037B1B701C4B2AF81F4B2AF00A03194D
:10048000F10A0319F20A031D4B2AF20CF10CF00CCD
:10049000F30A0319522AFA1FF2130030572A0130C7
:1004A0001820572A02302F20572A04301F2000001E
:0204B000080042
:1004B200831203137008F8007108F000F101F201D1
:1004C200F301FB01FC019630F300FA017008F10020
:0C04D2007808F000F801F2013B2008005F
:1004DE00831603139816903083129800831687178D
:1004EE00071383128C1E7E2A1A08F000782A080041
:1004FE0083120313D1010330510203188D2A5108C0
:10050E005007840020308000D10A822A51085007FB
:10051E0084008001D10351085007D2000A30F40044
:10052E004F08F0008B217808F0003030F0075208A9
:10053E008400700880000A30F4004F08F0008B2110
:10054E007008CF007008003A031DAE2AB02AD103FE
:04055E00922A0800D5
:1005620084218A110A128000840ABF0A0319C00A70
:08057200F003031DB12A08008B
:10057A0083120313A101A201A301A401A501A601EB
:10058A00A701A801A901AA01AB01AC01AD01AE0105
:10059A00AF01B001B101B201B3016830B400E83073
:1005AA00B5001F30B6007730B700B801B901BA01FB
:1005BA00BB01BC01BD01BE010130831685000130BB
:1005CA008312850001308316031788000130031354
:1005DA00880001308312880001309F008030831622
:1005EA009F0024308100033083129000810183161A
:1005FA008112E0308B0083128F018E01193083162D
:10060A00990018156F229F149F1C0C2B092B03307D
:10061A001E05F3007308B00083161E088312B1008A
:10062A007308F100F0013108F0070318F10A7008A5
:10063A00AA007108AB0059223408F4003508F50005
:10064A003608F6003708F700F8217008AC00710880
:10065A00AD007208AE007308AF003208F400F40D62
:10066A007410F40D74107408413E84007008800000
:10067A007108840A80007208840A80007308840A58
:10068A0080000330320203184B2BB20A3308023AB5
:10069A00031DA12B2608F0002708F1002808F20004
:1006AA002908F3000A30F400D730F5002330F600A9
:1006BA007A30F700F8217008F4007108F500720822
:1006CA00F6007308F7002608F0002708F10028084A
:1006DA00F2002908F300F2217008F4007108F5000D
:1006EA007208F6007308F7002C08F0002D08F100D4
:1006FA002E08F2002F08F300A2210130031C00305B
:10070A00F00070080319A12B2C08F4002D08F5003D
:10071A002E08F6002F08F7000030F0000030F10034
:10072A002030F2008130F300A2210130031C003096
:10073A00F00070080319A12BA30A081CAE2B240889
:10074A00003A031DAE2BA10A0319A20A0130A40024
:10075A00B62B0818B62B2408013A031DB62BA401A0
:10076A00B30A2C08F4002D08F5002E08F6002F080D
:10077A00F7002608F0002708F1002808F2002908E7
:10078A00F300A221013003180030F00070080319A9
:10079A00EE2B2C08F4002D08F5002E08F6002F0881
:1007AA00F7000030F0000030F1002030F200813014
:1007BA00F300A2210130031C0030F0007008031975
:1007CA00EE2B2C08A6002D08A7002E08A8002F083B
:1007DA00A90025087B3A031D002C8B132308CF00A0
:1007EA003930D0007F223930CF009C210130B80047
:0A07FA00F001F101012C082B012C85
:04400E00F22F000786
:00000001FF
