:040000008A15002835
:10000800FF00030E8301E4000A08E3008A018B1352
:100018000B1D10280B11A80A8B1763088A00640EA1
:080028008300FF0E7F0E0900AA
:0E003000F201F101F001F801F30100300800C7
:10003E007B15FB1F29280130F300F201F101F001BD
:08004E00FA0DF20CFF3008006E
:1000560083120313F801F9011030FC00710DF80D3D
:10006600F90D7408F8027508031C750FF9020318D8
:1000760043287408F80775080318750FF907031065
:0A008600F00DF10DFC0B312808000D
:10009000FB14FB1F5228FF30F300F200F100F000C8
:0800A000FA0DF20CFF3008001C
:1000A8008316031398185A2800005428831203173C
:0800B800200803139900080061
:0800C000FA1FF21300300800E2
:1000C8007C189A28FC186B287C19B9286428A00188
:1000D8007208031D8B287108F2007008F100780877
:1000E800F000F801A0157208031D8B287108F200B2
:1000F8007008F100F001A01120167208031D8B286A
:100108007108F200F101A01572080319AD28200842
:10011800F302031D031CB1280310F21B9A28F80DE3
:10012800F00DF10DF20DF30B9128B1287B1B701C1B
:10013800B528F81FB528F00A0319F10A0319F20ABD
:10014800031DB528F20CF10CF00CF30A0319B928B9
:10015800B5280130FC001820BC280230FC001F2004
:10016800BC280430FC006020BC280830FC00482073
:04017800000008007B
:10017C00831203179E0105301E020318CC281E089B
:10018C001D078400203080009E0AC1281E081D0710
:10019C00840080019E031E081D079F000A30F40096
:1001AC00F5011B08F0001C08F1002B207808F0006A
:1001BC007908F1003030F00703171F08840070082D
:1001CC0080000A30F400F5011B08F0001C08F10057
:1001DC002B20700803179B0071089C0000307106DF
:1001EC00031DFA2800307006031DFD28FF289E030E
:0401FC00D1280800FE
:1002000083120313FB017308031D77080319572991
:1002100072087606FA007708F3077E30031C14296B
:10022000F30203185A291729F302031C5D297208E7
:10023000F8007108FC007008FD00F817F6170310AD
:10024000F201F101F0011830A0007D1C3129740881
:10025000F00775080318750FF10776080318760F75
:10026000F207F20CF10CF00CF80CFC0CFD0C031076
:10027000A00B2529F21B4129F80DF00DF10DF20D0F
:10028000F3037B1B701C5329F81F5329F00A031931
:10029000F10A0319F20A031D5329F20CF10CF00CB8
:1002A000F30A03195A29FA1FF21300305F290130AB
:1002B00018205F29023048205F2904301F200000E9
:0202C000080034
:0E02C2008312031362088A006108820008009C
:1002D00083120313FD01F80170080319003474063A
:1002E000FA00FA1BFD09FB01F41F7829F409F40A4E
:1002F000F01F7C29F009F00A70087404FA00FA1B58
:10030000A0297408F802F00D700DF80D7408F807B4
:10031000F00D0630FC00700DF80D74087018F8022E
:10032000701CF807F00DFC0B8B29701CF8077B186C
:10033000AE29FD1F0034F009F00AF809F80A00346C
:10034000F41FAB29F01BA8297008F800F0019929C7
:10035000F001F00A0034F009FB0A8129F80A740858
:100360007802031D9929F801F00AF01F9929FF343A
:02037000080083
:10037200A0017208031DCE297108F2007008F10075
:10038200F001A0157208031DCE297108F200F101D7
:10039200A011201672080319DC292008F302031D9C
:1003A200031CE0290310F21BE429F00DF10DF20DFC
:1003B200F30BD429E0290130FC001820E729023090
:0E03C200FC001F20E7290430FC00602008002A
:1003D000831203179D011B08840000089C001C0861
:1003E000003A0319FE291C08A000542003179D0A97
:0E03F0001D081B07840000089C00EF29080070
:1003FE00831203171B08F2007208F100F20A1C08A0
:10040E00F0009C0A700884000008F0007108840057
:10041E00700880007108840000080319172A032A47
:06042E001B08F0000800AD
:1004340083120313FA017308031D7A147708031D4A
:10044400FA147A080319662A033A0319312A7A1826
:100454002E2AF61F642A622AF21F622A642A72086C
:100464008039FA00F21376088039F6137A060319F4
:100474003F2A7A080319622A642A77087302031947
:10048400462A031C5A2A5E2A7608720203194D2A48
:10049400031C5A2A5E2A750871020319542A031C84
:1004A4005A2A5E2A740870020319662A03185E2AFF
:1004B400FA080319642A622AFA080319622A642AC8
:1004C40003140800031008000314031508000800AF
:1004D4008312031373087706031D7D2A72087606B8
:1004E400031D7D2A71087506031D7D2A7008740694
:0C04F4000319031508000311080008009C
:100500008312031372087606A000F801F90173083C
:100510007702031CA32A7708FD007308F7007D0803
:10052000F3007608FD007208F6007D08F2007508F9
:10053000FD007108F5007D08F1007408FD007008E9
:10054000F4007D08F000770803191C2B7208FA00EC
:10055000F217F61777087302F7000319D62A083046
:100560007702031CCC2AF7007408F9007508F40020
:100570007608F500F60108307702031CCC2AF70054
:100580007408F9007508F400F50108307702031CBF
:10059000CC2A7A08F2001C2B77080319D62A0310FC
:1005A000F60CF50CF40CF90CF70BCF2AA01FE32A7C
:1005B000F909F409F509F609F90A0319F40A031906
:1005C000F50A0319F60A7908F80774080318740F76
:1005D000F00775080318750FF10776080318760FF2
:1005E000F207A01BFC2A031C0C2BF20CF10CF00CE4
:1005F000F80CF30F0C2B182B0318102BF809F0092B
:10060000F109F209F80A0319F00A0319F10A0319AA
:10061000F20A8030FA06142B0130FC0064201E2BF5
:100620000230FC0064201E2B0430FC00B9211E2B7C
:100630000830FC0048201E2B0030FC0000000800A1
:0E064000831203136E0803179B00E8210800C5
:10064E008312031796019701980199019A011008D8
:10065E0083160313EC00831203171108831603137A
:10066E00ED0083120317120883160313EE00831294
:10067E000317130883160313EF006F08FF3A031DC9
:10068E00522B6E08FF3A031D522B6D08FF3A031DC5
:10069E00522B6C08FF3A031D5E2B831203171408AE
:1006AE009B0032309C00FF210330F000E12D8312BD
:1006BE0001300313EE008316EE1F732B80306E068F
:1006CE00F0007008EE008312EE0A0317970A140862
:1006DE0084002D308000940A0030F000831603133E
:1006EE006F06031D842B70086E06031D842B700885
:1006FE006D06031D842B6C08003A031D8F2B83128D
:10070E00031714089B0036309C00FF21F001E12DE9
:10071E00831603136F08FF3A031D9F2B6E08003AD2
:10072E00031D9F2B6D08003A031D9F2B6C08003A8A
:10073E00031DAC2B8312031714089B002E309C0054
:10074E00FF2103136E08F000E12D03130030F400B7
:10075E000030F5000030F6007F30F70083166C088D
:10076E00F0006D08F1006E08F2006F08F3001A2217
:10077E00013003180030F00070080319E52B8316C2
:10078E006C08F0006D08F1006E08F2006F08F300BF
:10079E000030F4000030F5002030F6008230F70013
:1007AE00002170088316EC007108ED007208EE004F
:1007BE007308EF00831203179A03AC2B0030F4007A
:1007CE000030F5002030F6008230F7008316031358
:1007DE006C08F0006D08F1006E08F2006F08F3006F
:1007EE001A220130031C0030F000700803191E2C71
:1007FE0083166C08F0006D08F1006E08F2006F08A9
:10080E00F300CD30F400CC30F5004C30F6007B30E8
:10081E00F700002170088316EC007108ED007208D5
:10082E00EE007308EF00831203179A0AE52BFF30D0
:10083E00831603136C05F800FF306D05F9007F3049
:10084E006E05FA0000306F05FB007808F400790899
:10085E00F5007A08F6007B08F700F40DF50DF60D9D
:10086E00F70D741000306C05F00000306D05F100CE
:10087E0000306E05F200FF306F05F3007008EC00DB
:10088E007108ED007208EE007308EF0074086C0436
:10089E00F00075086D04F10076086E04F20077081A
:1008AE006F04F3007008EC007108ED007208EE00A2
:1008BE007308EF007F306F02F00070088312EF00B4
:1008CE0001308316EF007008F4006C08F0006D081C
:1008DE00F1006E08F2006F08F300740803197E2C05
:1008EE00F00DF10DF20DF30D7010FF3E752C831609
:1008FE0003137008EC007108ED007208EE00730827
:10090E00EF006F08303EF0008312031714088400C6
:10091E0070088000940A970A80301A06F000803022
:10092E00013A7002031CA42C8030063AF00080308D
:10093E001A067002031CA42CAC2C140884002E3052
:10094E008000940A01309600970A06300313EF00D8
:10095E006F08003A0319132D8316EF016C08F0008F
:10096E006D08F1006E08F2006F08F300F00DF10D46
:10097E00F20DF30D7010F00DF10DF20DF30D701070
:10098E006C08F0076D0803186D0FF1076E08031859
:10099E006E0FF2076F0803186F0FF3077008EC0065
:1009AE007108ED007208EE007308EF006C08F0009D
:1009BE006D08F1006E08F2006F08F300F00DF10DF6
:1009CE00F20DF30D70107008EC007108ED00720856
:1009DE00EE007308EF006F08303EF000831203172D
:1009EE001408840070088000940A970A1608003ACA
:1009FE00031D102D9A031A08003A031D102D013005
:100A0E009900140884002E308000940A013096005C
:100A1E00970A0313EF03AF2C03171908013A031DAE
:100A2E00192D9703FF301407840000082E3A031D7A
:100A3E00222D940397038030003AF00080301A067E
:100A4E00700203182C2D0130980080301A06F00029
:100A5E008030003A70020318362D023098001A08C2
:100A6E000313EF008030093AF000803003171A06A6
:100A7E007002031C442D980A462D02309807180860
:100A8E001707F100F2010318F20A80307206F00027
:100A9E0080307002031D552D1508710203185E2D4E
:100AAE001408840030308000940A970A462D1A08E4
:100ABE00003A0319A12D1408840065308000940AB1
:100ACE0080301A06F0008030003A70020318772D3D
:100ADE00140884002D308000940A1A08003C9A00F5
:100AEE001A080313EF008030093AF0008030031724
:100AFE001A0670020318912D0A30F40003136F08C2
:100B0E00F00068213030F0070317140884007008D5
:100B1E008000940A0A30F40003136F08F000682175
:100B2E007808F0003030F0070317140884007008BE
:100B3E008000940A18081707F0007008970015082F
:100B4E007002F10071080313EF008030003AF000DC
:100B5E008030710670020318C22D03138030003AE4
:100B6E00F00080306F0670020318C12DEF030317DB
:100B7E009403B42DDC2D803003136F06F00080300B
:100B8E00003A70020318DC2D031380306F06F0005C
:100B9E008030003A70020318DC2DEF0A0317140898
:100BAE00840030308000940ACB2D03171408840083
:060BBE008001F0010800B7
:100BC40061218A110A128000840AE10A0319E20AE7
:080BD400F003031DE22D0800EF
:100BDC00831203137008F8007108F000F101F201A0
:100BEC00F301FB01FC019630F300FA017008F100EF
:0C0BFC007808F000F801F201B9210800AF
:100C08008312031790019101831603136C08831252
:100C180003179200831603136D08831203179300BA
:100C28008030831603136D06F00080307002031DB8
:100C38001F2E00306C020318372E01308312031761
:100C4800900000309100831603136C08003C831257
:100C580003179200831603136D08031C013E8312C9
:100C68000317930193028312031712089B001308BA
:100C78009C00831603136E08831203179D00BE2081
:100C880006300313EE000030EF006F08003C031D30
:100C98004F2E6E08003C03186E2E6E0883166E07E2
:100CA800F200013083126E02F0000030031C013E96
:100CB8006F02F100700883166E0784000008F000C8
:100CC800720884007008800001308312EE02031C51
:100CD800EF03492E83166E088400203080008312AB
:100CE8000317100811040319942E0313EE01EF01E2
:100CF8006E0883166E0784000008203A031D892EAB
:100D08008312EE0A0319EF0A7C2E83120130EE02D9
:100D1800031CEF036E0883166E0784002D308000D5
:020D28000800C1
:100D2A008316031398169030831298008316871738
:100D3A00071383128C1EA42E1A08F0009E2E080098
:100DCC0021308400403083120313F000A530E10081
:080DDC000630E200E2250800E8
:101000008A11E6268A150130831603138500013004
:101010008312850001308316031788000130031303
:10102000880001308312880001309F0080308316D1
:101030009F002430810003308312900081018316C9
:101040008112E0308B0083128F018E0119308316DC
:10105000990018158A1195268A1503139F149F1C51
:1010600032282F2803301E05F3007308E000831692
:101070001E088312D0007308F100F0015008F00739
:101080000318F10A7008D1007108D2008A11EE2508
:101090008A155308F4005408F5005508F600560860
:1010A000F7008A1100218A157008D7007108D8004E
:1010B0007208D9007308DA005F08F400F40D7410A8
:1010C000F40D74107408383E8400700880007108B4
:1010D000840A80007208840A80007308840A8000F1
:1010E00003305F0203187528DF0A081C81285E0898
:1010F000003A031D8128DB0A0319DC0A0130DE00F7
:101100008928081889285E08013A031D8928DE010C
:10111000DD0A5E08013A031DCA285D08003A031D76
:10112000CA284808F4004908F5004A08F6004B08A8
:10113000F7005708F0005808F1005908F2005A0863
:10114000F3008A111A228A15013003180030F000CA
:1011500070080319CA28033029020318CA284C084A
:10116000F0004D08F1004E08F2004F08F300003087
:10117000F4000030F5000030F6007F30F7008A11EF
:1011800080228A157008CC007108CD007208CE004C
:101190007308CF005708C8005808C9005908CA008A
:1011A0005A08CB00A90A5708F4005808F500590856
:1011B000F6005A08F7002A08F0002B08F1002C0866
:1011C000F2002D08F3008A111A228A150130031843
:1011D0000030F000700803190F295708F400580870
:1011E000F5005908F6005A08F7000030F00000300A
:1011F000F1002030F2008130F3008A111A228A15A2
:101200000130031C0030F000700803190F29570843
:10121000AA005808AB005908AC005A08AD002808CD
:101220007B3A031D16298B130130A1002108013AD6
:10123000031D6B2A3C08F4003D08F5003E08F6004B
:101240003F08F7003808F0003908F1003A08F200CA
:101250003B08F3008A116A228A150130031D003011
:10126000F0007008031966294630E5004F30E600AB
:101270005230E7004D30E8004130E9003A30EA00F2
:10128000EB016530EE008A1120238A155230831657
:101290000313A0004530A1004330A2005430A30046
:1012A0004130A4004E30A5004730A6005530A700BD
:1012B0004C30A8004130A9005230AA00AB01A03048
:1012C0008312EE008A1120238A15E1290030F400F0
:1012D0000030F5000030F6007F30F70003134C08B3
:1012E000F0004D08F1004E08F2004F08F3008A119B
:1012F0001A228A150130031C0030F000700803190F
:10130000B32946308316AC004F30AD005230AE00EA
:101310004D30AF004130B0003A30B100B201AC30D6
:101320008312EE008A1120238A155430831603138A
:10133000B3005230B4004930B5004130B6004E30F1
:10134000B7004730B8005530B9004C30BA004130D2
:10135000BB005230BC00BD01B3308312EE008A11D5
:1013600020238A15E129463083160313BE004F302F
:10137000BF005230C0004D30C1004130C2003A3091
:10138000C300C401BE308312EE008A1120238A15E7
:10139000533083160313C5004530C6004E30C700D6
:1013A0004F30C8004930C9004430CA004130CB003A
:1013B0004C30CC00CD01C5308312EE008A112023C1
:1013C0008A150A3083160313CE000D30CF00463045
:1013D000D0005230D1004530D2004330D3005530D8
:1013E000D4004530D5004E30D6004330D7004930C8
:1013F000D8004130D9003A30DA000A30DB000D3035
:10140000DC00DD01CE308312EE008A1120238A1524
:1014100003135B088316EC0083125C088316ED004F
:101420002230EE008A1104268A152230831203131B
:10143000EE008A1120238A15483083160313DE003C
:101440005A30DF000D30E0000A30E1004130E200A8
:101450004D30E3005030E4004C30E5004930E60008
:101460005430E7005530E8004430E9003A30EA00F3
:10147000EB01DE308312EE008A1120238A1503135C
:101480002A080317900003132B0803179100031376
:101490002C080317920003132D0803179300223022
:1014A0009400053095008A1127238A152230831273
:1014B0000313EE008A1120238A1556300313EC0023
:1014C000ED016C30EE008A1120238A150130F00006
:0A14D0000030F1006C2A2D286C2A70
:020D4A00003473
:0C0D4C0000340034003400340034003463
:020D5800003465
:020D5A00003463
:080D5C000034003400340034BF
:080D640049344E3446340034DA
:080D6C004E3461344E340034B2
:040D740030340034E3
:100D780000340034003400340034003400340034CB
:100D880000340034003400340034003400340034BB
:100D980000340034003400340034003400340034AB
:020DA800003415
:040DAA0000340034DD
:080DAE006834E8341F34773487
:080DB600003400340034003465
:040DBE0000340034C9
:020DC2000034FB
:020DC4000034F9
:020DC6000034F7
:020DC8000034F5
:04400E00F22F000786
:00000001FF
