:020000002829AD
:10000800FF00030E8301AD000A08AC008A018B13C0
:100018000B1D10280B11A90A8B172C088A002D0E0E
:080028008300FF0E7F0E0900AA
:100030008316031398181E280000182883124F08EF
:04004000990008001B
:1000440083120313F801F9011030FC00710DF80D4F
:10005400F90D7408F8027508031C750FF9020318EA
:100064003A287408F80775080318750FF907031080
:0A007400F00DF10DFC0B2828080028
:10007E0083120313CC014A0884000008CB004B08FE
:10008E00003A031954284B08CF001820CC0A4C080C
:0C009E004A0784000008CB004628080038
:0E00AA00831203132B088A002A088200080024
:1000B80083120313CD0105304D0203186A284D0839
:1000C8004C07840020308000CD0A5F284D084C077B
:1000D80084008001CD034D084C07CE000A30F4009F
:1000E800F5014A08F0004B08F10022207808F000DA
:1000F8007908F1003030F0074E088400700880005D
:100108000A30F400F5014A08F0004B08F1002220FB
:100118007008CA007108CB0000307106031D9628CC
:1001280000307006031D99289B28CD036F2808000E
:0C013800831203134108CA003F20080096
:1001440083120313C601C7014108C8004208C9004D
:1001540080304206F00080307002031DB328003066
:1001640041020318C1280130C6000030C70041080D
:10017400003CC8004208031C013EC901C9024808EA
:10018400CA004908CB004308CC005C200630C400F8
:100194000030C5004508003C031DD2284408003C3B
:1001A4000318ED2844084307F20001304402F0002C
:1001B4000030031C013E4502F1007008430784002F
:1001C4000008F00072088400700880000130C40246
:1001D400031CC503CC284308840020308000460853
:1001E400470403190B29C401C501440843078400CB
:1001F4000008203A031D0229C40A0319C50AF72876
:100204000130C402031CC5034408430784002D3095
:04021400800008005E
:1002180055208A110A128000840AAA0A0319AB0A17
:08022800F003031D0C2908007E
:10023000831603139816903083129800831687173D
:10024000071383128C1E27291A08F00021290800A1
:1002500083120313A001A101A201A301A401A5011E
:10026000A601A701A801A9018316870183128701AE
:10027000243083168100033083129000810183169D
:100280008112E0308B0083128F018E0119308316AA
:100290009900181518214630AE005230AF00453095
:1002A000B0004330B1005530B2004530B3004E309D
:1002B000B4004330B5004930B6004130B7003A30A1
:1002C000B8000A30B9000D30BA00BB012E30CA00A8
:1002D0003F2029087B3A031D6F290130A000200828
:1002E000013A031D99290F08F100F0010E08F007EB
:1002F0000318F10A7008A1007108A2007008C1007B
:100300007108C2002330C300A2202330C1009C200A
:100310004830BC005A30BD000D30BE000A30BF006E
:10032000C0013C30C1009C200130F0000030F100E1
:060330009A2969299A29AF
:04400E00F22F000786
:00000001FF
