:020000000A28CC
:0E0006008312031321088A00200882000800DC
:10001400831603138801FF30860087018312880149
:1000240086018701A2010530220203183528861CA7
:1000340033282208443EF00000300318013EF1004A
:100044007008A0007108A10003208A110A12880018
:100054000430FC00E430FD00FD0B2E28FC0B2E28A0
:100064000000A20A15280230FB000430FC00BA305C
:10007400FD00FD0B3B28FC0B3B28FB0B3B28000041
:0400840014284328D1
:0A008800903498349C349E341F34E9
:02400E004A2F37
:00000001FF
